{
  "contractName": "Aadhar",
  "abi": [
    {
      "inputs": [],
      "payable": false,
      "stateMutability": "nonpayable",
      "type": "constructor"
    },
    {
      "constant": true,
      "inputs": [
        {
          "internalType": "address",
          "name": "",
          "type": "address"
        }
      ],
      "name": "address_crime_map",
      "outputs": [
        {
          "internalType": "string",
          "name": "name",
          "type": "string"
        },
        {
          "internalType": "string",
          "name": "org_id",
          "type": "string"
        },
        {
          "internalType": "bool",
          "name": "isVerified",
          "type": "bool"
        },
        {
          "internalType": "string",
          "name": "location",
          "type": "string"
        },
        {
          "internalType": "string",
          "name": "about",
          "type": "string"
        },
        {
          "internalType": "string",
          "name": "physical_address",
          "type": "string"
        },
        {
          "internalType": "string",
          "name": "email",
          "type": "string"
        }
      ],
      "payable": false,
      "stateMutability": "view",
      "type": "function"
    },
    {
      "constant": true,
      "inputs": [
        {
          "internalType": "address",
          "name": "",
          "type": "address"
        }
      ],
      "name": "address_edu_map",
      "outputs": [
        {
          "internalType": "string",
          "name": "name",
          "type": "string"
        },
        {
          "internalType": "string",
          "name": "org_id",
          "type": "string"
        },
        {
          "internalType": "bool",
          "name": "isVerified",
          "type": "bool"
        },
        {
          "internalType": "string",
          "name": "location",
          "type": "string"
        },
        {
          "internalType": "string",
          "name": "about",
          "type": "string"
        },
        {
          "internalType": "string",
          "name": "physical_address",
          "type": "string"
        },
        {
          "internalType": "string",
          "name": "email",
          "type": "string"
        }
      ],
      "payable": false,
      "stateMutability": "view",
      "type": "function"
    },
    {
      "constant": true,
      "inputs": [
        {
          "internalType": "address",
          "name": "",
          "type": "address"
        }
      ],
      "name": "address_med_map",
      "outputs": [
        {
          "internalType": "string",
          "name": "name",
          "type": "string"
        },
        {
          "internalType": "string",
          "name": "org_id",
          "type": "string"
        },
        {
          "internalType": "bool",
          "name": "isVerified",
          "type": "bool"
        },
        {
          "internalType": "string",
          "name": "location",
          "type": "string"
        },
        {
          "internalType": "string",
          "name": "about",
          "type": "string"
        },
        {
          "internalType": "string",
          "name": "physical_address",
          "type": "string"
        },
        {
          "internalType": "string",
          "name": "email",
          "type": "string"
        }
      ],
      "payable": false,
      "stateMutability": "view",
      "type": "function"
    },
    {
      "constant": true,
      "inputs": [
        {
          "internalType": "address",
          "name": "",
          "type": "address"
        }
      ],
      "name": "address_person_map",
      "outputs": [
        {
          "internalType": "string",
          "name": "name",
          "type": "string"
        },
        {
          "internalType": "string",
          "name": "AadharNo",
          "type": "string"
        },
        {
          "internalType": "string",
          "name": "Gender",
          "type": "string"
        }
      ],
      "payable": false,
      "stateMutability": "view",
      "type": "function"
    },
    {
      "constant": true,
      "inputs": [],
      "name": "admin",
      "outputs": [
        {
          "internalType": "address",
          "name": "",
          "type": "address"
        }
      ],
      "payable": false,
      "stateMutability": "view",
      "type": "function"
    },
    {
      "constant": true,
      "inputs": [
        {
          "internalType": "address",
          "name": "",
          "type": "address"
        }
      ],
      "name": "exists_address_crime_map",
      "outputs": [
        {
          "internalType": "bool",
          "name": "",
          "type": "bool"
        }
      ],
      "payable": false,
      "stateMutability": "view",
      "type": "function"
    },
    {
      "constant": true,
      "inputs": [
        {
          "internalType": "address",
          "name": "",
          "type": "address"
        }
      ],
      "name": "exists_address_edu_map",
      "outputs": [
        {
          "internalType": "bool",
          "name": "",
          "type": "bool"
        }
      ],
      "payable": false,
      "stateMutability": "view",
      "type": "function"
    },
    {
      "constant": true,
      "inputs": [
        {
          "internalType": "address",
          "name": "",
          "type": "address"
        }
      ],
      "name": "exists_address_med_map",
      "outputs": [
        {
          "internalType": "bool",
          "name": "",
          "type": "bool"
        }
      ],
      "payable": false,
      "stateMutability": "view",
      "type": "function"
    },
    {
      "constant": true,
      "inputs": [
        {
          "internalType": "address",
          "name": "",
          "type": "address"
        }
      ],
      "name": "exists_address_person_map",
      "outputs": [
        {
          "internalType": "bool",
          "name": "",
          "type": "bool"
        }
      ],
      "payable": false,
      "stateMutability": "view",
      "type": "function"
    },
    {
      "constant": true,
      "inputs": [
        {
          "internalType": "address",
          "name": "",
          "type": "address"
        }
      ],
      "name": "person_to_crime_org",
      "outputs": [
        {
          "internalType": "address",
          "name": "",
          "type": "address"
        }
      ],
      "payable": false,
      "stateMutability": "view",
      "type": "function"
    },
    {
      "constant": true,
      "inputs": [
        {
          "internalType": "address",
          "name": "",
          "type": "address"
        }
      ],
      "name": "person_to_edu_org",
      "outputs": [
        {
          "internalType": "address",
          "name": "",
          "type": "address"
        }
      ],
      "payable": false,
      "stateMutability": "view",
      "type": "function"
    },
    {
      "constant": true,
      "inputs": [
        {
          "internalType": "address",
          "name": "",
          "type": "address"
        }
      ],
      "name": "person_to_med_org",
      "outputs": [
        {
          "internalType": "address",
          "name": "",
          "type": "address"
        }
      ],
      "payable": false,
      "stateMutability": "view",
      "type": "function"
    },
    {
      "constant": true,
      "inputs": [
        {
          "internalType": "address",
          "name": "",
          "type": "address"
        }
      ],
      "name": "verified_address_crime_map",
      "outputs": [
        {
          "internalType": "bool",
          "name": "",
          "type": "bool"
        }
      ],
      "payable": false,
      "stateMutability": "view",
      "type": "function"
    },
    {
      "constant": true,
      "inputs": [
        {
          "internalType": "address",
          "name": "",
          "type": "address"
        }
      ],
      "name": "verified_address_edu_map",
      "outputs": [
        {
          "internalType": "bool",
          "name": "",
          "type": "bool"
        }
      ],
      "payable": false,
      "stateMutability": "view",
      "type": "function"
    },
    {
      "constant": true,
      "inputs": [
        {
          "internalType": "address",
          "name": "",
          "type": "address"
        }
      ],
      "name": "verified_address_med_map",
      "outputs": [
        {
          "internalType": "bool",
          "name": "",
          "type": "bool"
        }
      ],
      "payable": false,
      "stateMutability": "view",
      "type": "function"
    },
    {
      "constant": false,
      "inputs": [
        {
          "internalType": "address",
          "name": "org_address",
          "type": "address"
        },
        {
          "internalType": "string",
          "name": "name",
          "type": "string"
        },
        {
          "internalType": "string",
          "name": "org_id",
          "type": "string"
        },
        {
          "internalType": "string",
          "name": "location",
          "type": "string"
        },
        {
          "internalType": "string",
          "name": "about",
          "type": "string"
        },
        {
          "internalType": "string",
          "name": "email",
          "type": "string"
        }
      ],
      "name": "registerEduOrg",
      "outputs": [],
      "payable": false,
      "stateMutability": "nonpayable",
      "type": "function"
    },
    {
      "constant": false,
      "inputs": [
        {
          "internalType": "address",
          "name": "org_address",
          "type": "address"
        },
        {
          "internalType": "string",
          "name": "name",
          "type": "string"
        },
        {
          "internalType": "string",
          "name": "org_id",
          "type": "string"
        },
        {
          "internalType": "string",
          "name": "location",
          "type": "string"
        },
        {
          "internalType": "string",
          "name": "about",
          "type": "string"
        },
        {
          "internalType": "string",
          "name": "email",
          "type": "string"
        }
      ],
      "name": "registerCrimeOrg",
      "outputs": [],
      "payable": false,
      "stateMutability": "nonpayable",
      "type": "function"
    },
    {
      "constant": false,
      "inputs": [
        {
          "internalType": "address",
          "name": "org_address",
          "type": "address"
        },
        {
          "internalType": "string",
          "name": "name",
          "type": "string"
        },
        {
          "internalType": "string",
          "name": "org_id",
          "type": "string"
        },
        {
          "internalType": "string",
          "name": "location",
          "type": "string"
        },
        {
          "internalType": "string",
          "name": "about",
          "type": "string"
        },
        {
          "internalType": "string",
          "name": "email",
          "type": "string"
        }
      ],
      "name": "registerMedOrg",
      "outputs": [],
      "payable": false,
      "stateMutability": "nonpayable",
      "type": "function"
    },
    {
      "constant": false,
      "inputs": [
        {
          "internalType": "address",
          "name": "person_address",
          "type": "address"
        },
        {
          "internalType": "string",
          "name": "name",
          "type": "string"
        },
        {
          "internalType": "string",
          "name": "Gender",
          "type": "string"
        },
        {
          "internalType": "string",
          "name": "AadharNo",
          "type": "string"
        }
      ],
      "name": "registerPerson",
      "outputs": [],
      "payable": false,
      "stateMutability": "nonpayable",
      "type": "function"
    },
    {
      "constant": true,
      "inputs": [
        {
          "internalType": "address",
          "name": "person_address",
          "type": "address"
        }
      ],
      "name": "getPerson",
      "outputs": [
        {
          "components": [
            {
              "internalType": "string",
              "name": "name",
              "type": "string"
            },
            {
              "internalType": "string",
              "name": "AadharNo",
              "type": "string"
            },
            {
              "internalType": "string",
              "name": "Gender",
              "type": "string"
            },
            {
              "components": [
                {
                  "internalType": "address",
                  "name": "org_address",
                  "type": "address"
                },
                {
                  "internalType": "string",
                  "name": "org_name",
                  "type": "string"
                },
                {
                  "internalType": "string",
                  "name": "Description",
                  "type": "string"
                },
                {
                  "internalType": "string",
                  "name": "Hash",
                  "type": "string"
                },
                {
                  "internalType": "uint256",
                  "name": "timeStamp",
                  "type": "uint256"
                }
              ],
              "internalType": "struct Aadhar.Edu_data[]",
              "name": "Educations",
              "type": "tuple[]"
            },
            {
              "components": [
                {
                  "internalType": "address",
                  "name": "org_address",
                  "type": "address"
                },
                {
                  "internalType": "string",
                  "name": "Description",
                  "type": "string"
                },
                {
                  "internalType": "string",
                  "name": "Hash",
                  "type": "string"
                },
                {
                  "internalType": "uint256",
                  "name": "timeStamp",
                  "type": "uint256"
                }
              ],
              "internalType": "struct Aadhar.Crime_data[]",
              "name": "Crimes",
              "type": "tuple[]"
            },
            {
              "components": [
                {
                  "internalType": "address",
                  "name": "org_address",
                  "type": "address"
                },
                {
                  "internalType": "string",
                  "name": "org_name",
                  "type": "string"
                },
                {
                  "internalType": "string",
                  "name": "Description",
                  "type": "string"
                },
                {
                  "internalType": "string",
                  "name": "Hash",
                  "type": "string"
                },
                {
                  "internalType": "uint256",
                  "name": "timeStamp",
                  "type": "uint256"
                }
              ],
              "internalType": "struct Aadhar.Med_data[]",
              "name": "Medical",
              "type": "tuple[]"
            }
          ],
          "internalType": "struct Aadhar.Person",
          "name": "",
          "type": "tuple"
        }
      ],
      "payable": false,
      "stateMutability": "view",
      "type": "function"
    },
    {
      "constant": true,
      "inputs": [
        {
          "internalType": "address",
          "name": "org_address",
          "type": "address"
        }
      ],
      "name": "getEduOrg",
      "outputs": [
        {
          "components": [
            {
              "internalType": "string",
              "name": "name",
              "type": "string"
            },
            {
              "internalType": "string",
              "name": "org_id",
              "type": "string"
            },
            {
              "internalType": "bool",
              "name": "isVerified",
              "type": "bool"
            },
            {
              "internalType": "string",
              "name": "location",
              "type": "string"
            },
            {
              "internalType": "string",
              "name": "about",
              "type": "string"
            },
            {
              "internalType": "string",
              "name": "physical_address",
              "type": "string"
            },
            {
              "internalType": "string",
              "name": "email",
              "type": "string"
            },
            {
              "internalType": "string[]",
              "name": "Docs",
              "type": "string[]"
            }
          ],
          "internalType": "struct Aadhar.Org_Education",
          "name": "",
          "type": "tuple"
        }
      ],
      "payable": false,
      "stateMutability": "view",
      "type": "function"
    },
    {
      "constant": true,
      "inputs": [
        {
          "internalType": "address",
          "name": "my_address",
          "type": "address"
        }
      ],
      "name": "checkRole",
      "outputs": [
        {
          "internalType": "uint256",
          "name": "",
          "type": "uint256"
        }
      ],
      "payable": false,
      "stateMutability": "view",
      "type": "function"
    },
    {
      "constant": false,
      "inputs": [
        {
          "internalType": "address",
          "name": "person_address",
          "type": "address"
        },
        {
          "internalType": "address",
          "name": "org_address",
          "type": "address"
        },
        {
          "internalType": "string",
          "name": "doc_hash",
          "type": "string"
        },
        {
          "internalType": "string",
          "name": "Description",
          "type": "string"
        }
      ],
      "name": "addPersonDoc",
      "outputs": [],
      "payable": false,
      "stateMutability": "nonpayable",
      "type": "function"
    },
    {
      "constant": false,
      "inputs": [
        {
          "internalType": "address",
          "name": "org_address",
          "type": "address"
        }
      ],
      "name": "verifyEduOrg",
      "outputs": [],
      "payable": false,
      "stateMutability": "nonpayable",
      "type": "function"
    },
    {
      "constant": false,
      "inputs": [
        {
          "internalType": "address",
          "name": "org_address",
          "type": "address"
        }
      ],
      "name": "verifyCrimeOrg",
      "outputs": [],
      "payable": false,
      "stateMutability": "nonpayable",
      "type": "function"
    },
    {
      "constant": false,
      "inputs": [
        {
          "internalType": "address",
          "name": "org_address",
          "type": "address"
        }
      ],
      "name": "verifyMedOrg",
      "outputs": [],
      "payable": false,
      "stateMutability": "nonpayable",
      "type": "function"
    },
    {
      "constant": false,
      "inputs": [
        {
          "internalType": "address",
          "name": "org_address",
          "type": "address"
        },
        {
          "internalType": "string",
          "name": "hash",
          "type": "string"
        }
      ],
      "name": "addEduOrgDocs",
      "outputs": [],
      "payable": false,
      "stateMutability": "nonpayable",
      "type": "function"
    },
    {
      "constant": false,
      "inputs": [
        {
          "internalType": "address",
          "name": "org_address",
          "type": "address"
        },
        {
          "internalType": "string",
          "name": "hash",
          "type": "string"
        }
      ],
      "name": "addCrimeOrgDocs",
      "outputs": [],
      "payable": false,
      "stateMutability": "nonpayable",
      "type": "function"
    },
    {
      "constant": false,
      "inputs": [
        {
          "internalType": "address",
          "name": "org_address",
          "type": "address"
        },
        {
          "internalType": "string",
          "name": "hash",
          "type": "string"
        }
      ],
      "name": "addMedOrgDocs",
      "outputs": [],
      "payable": false,
      "stateMutability": "nonpayable",
      "type": "function"
    }
  ],
  "bytecode": "0x608060405234801561001057600080fd5b50336000806101000a81548173ffffffffffffffffffffffffffffffffffffffff021916908373ffffffffffffffffffffffffffffffffffffffff160217905550614b3f806100606000396000f3fe608060405234801561001057600080fd5b50600436106101cf5760003560e01c80637fb1ab0711610104578063a7453b6a116100a2578063c7c3439111610071578063c7c34391146105d0578063db3549da146105ec578063f7a3f3881461061c578063f851a4401461064c576101cf565b8063a7453b6a1461051e578063a7edaddc14610554578063bebb8e4a14610584578063c1c1ba6d146105b4576101cf565b806392070306116100de57806392070306146104725780639ade6cc2146104a25780639b25ea37146104d2578063a0d7823e146104ee576101cf565b80637fb1ab07146103f05780638dd5ed781461040c5780638e36888014610442576101cf565b8063552d2d5c1161017157806361de297a1161014b57806361de297a14610358578063658d9257146103745780636d3a92eb146103a45780637645a840146103d4576101cf565b8063552d2d5c146102c65780635b5b1864146102f657806361329d2e14610328576101cf565b806314b90345116101ad57806314b903451461023c57806329beeb1d146102725780633accb59c1461028e57806346d14b1c146102aa576101cf565b80630b006225146101d4578063110a7947146101f0578063145aa32314610220575b600080fd5b6101ee60048036036101e99190810190613e52565b61066a565b005b61020a60048036036102059190810190613d42565b610757565b6040516102179190614701565b60405180910390f35b61023a60048036036102359190810190613d42565b610777565b005b61025660048036036102519190810190613d42565b610918565b604051610269979695949392919061471c565b60405180910390f35b61028c60048036036102879190810190613dfe565b610cf7565b005b6102a860048036036102a39190810190613d42565b610e65565b005b6102c460048036036102bf9190810190613efd565b611006565b005b6102e060048036036102db9190810190613d42565b611127565b6040516102ed91906148a3565b60405180910390f35b610310600480360361030b9190810190613d42565b611ab3565b60405161031f939291906147b5565b60405180910390f35b610342600480360361033d9190810190613d42565b611ca5565b60405161034f91906146e6565b60405180910390f35b610372600480360361036d9190810190613dfe565b611cd8565b005b61038e60048036036103899190810190613d42565b611e46565b60405161039b9190614701565b60405180910390f35b6103be60048036036103b99190810190613d42565b611e66565b6040516103cb9190614701565b60405180910390f35b6103ee60048036036103e99190810190613efd565b611e86565b005b61040a60048036036104059190810190613efd565b611fa7565b005b61042660048036036104219190810190613d42565b6120c8565b604051610439979695949392919061471c565b60405180910390f35b61045c60048036036104579190810190613d42565b6124a7565b6040516104699190614881565b60405180910390f35b61048c60048036036104879190810190613d42565b6129d1565b6040516104999190614701565b60405180910390f35b6104bc60048036036104b79190810190613d42565b6129f1565b6040516104c99190614701565b60405180910390f35b6104ec60048036036104e79190810190613d6b565b612a11565b005b61050860048036036105039190810190613d42565b6130c4565b60405161051591906148c5565b60405180910390f35b61053860048036036105339190810190613d42565b6132b6565b60405161054b979695949392919061471c565b60405180910390f35b61056e60048036036105699190810190613d42565b613695565b60405161057b9190614701565b60405180910390f35b61059e60048036036105999190810190613d42565b6136b5565b6040516105ab91906146e6565b60405180910390f35b6105ce60048036036105c99190810190613d42565b6136e8565b005b6105ea60048036036105e59190810190613dfe565b613889565b005b61060660048036036106019190810190613d42565b6139f7565b6040516106139190614701565b60405180910390f35b61063660048036036106319190810190613d42565b613a17565b60405161064391906146e6565b60405180910390f35b610654613a4a565b60405161066191906146e6565b60405180910390f35b6000600160008673ffffffffffffffffffffffffffffffffffffffff1673ffffffffffffffffffffffffffffffffffffffff1681526020019081526020016000209050838160000190805190602001906106c5929190613a6f565b50828160020190805190602001906106de929190613a6f565b50818160010190805190602001906106f7929190613a6f565b506001600560008773ffffffffffffffffffffffffffffffffffffffff1673ffffffffffffffffffffffffffffffffffffffff16815260200190815260200160002060006101000a81548160ff0219169083151502179055505050505050565b60096020528060005260406000206000915054906101000a900460ff1681565b6000809054906101000a900473ffffffffffffffffffffffffffffffffffffffff1673ffffffffffffffffffffffffffffffffffffffff163373ffffffffffffffffffffffffffffffffffffffff16146107d057600080fd5b600860008273ffffffffffffffffffffffffffffffffffffffff1673ffffffffffffffffffffffffffffffffffffffff16815260200190815260200160002060009054906101000a900460ff1661085c576040517f08c379a000000000000000000000000000000000000000000000000000000000815260040161085390614861565b60405180910390fd5b6000600460008373ffffffffffffffffffffffffffffffffffffffff1673ffffffffffffffffffffffffffffffffffffffff168152602001908152602001600020905060018160020160006101000a81548160ff0219169083151502179055506001600b60008473ffffffffffffffffffffffffffffffffffffffff1673ffffffffffffffffffffffffffffffffffffffff16815260200190815260200160002060006101000a81548160ff0219169083151502179055505050565b6004602052806000526040600020600091509050806000018054600181600116156101000203166002900480601f0160208091040260200160405190810160405280929190818152602001828054600181600116156101000203166002900480156109c45780601f10610999576101008083540402835291602001916109c4565b820191906000526020600020905b8154815290600101906020018083116109a757829003601f168201915b505050505090806001018054600181600116156101000203166002900480601f016020809104026020016040519081016040528092919081815260200182805460018160011615610100020316600290048015610a625780601f10610a3757610100808354040283529160200191610a62565b820191906000526020600020905b815481529060010190602001808311610a4557829003601f168201915b5050505050908060020160009054906101000a900460ff1690806003018054600181600116156101000203166002900480601f016020809104026020016040519081016040528092919081815260200182805460018160011615610100020316600290048015610b135780601f10610ae857610100808354040283529160200191610b13565b820191906000526020600020905b815481529060010190602001808311610af657829003601f168201915b505050505090806004018054600181600116156101000203166002900480601f016020809104026020016040519081016040528092919081815260200182805460018160011615610100020316600290048015610bb15780601f10610b8657610100808354040283529160200191610bb1565b820191906000526020600020905b815481529060010190602001808311610b9457829003601f168201915b505050505090806005018054600181600116156101000203166002900480601f016020809104026020016040519081016040528092919081815260200182805460018160011615610100020316600290048015610c4f5780601f10610c2457610100808354040283529160200191610c4f565b820191906000526020600020905b815481529060010190602001808311610c3257829003601f168201915b505050505090806006018054600181600116156101000203166002900480601f016020809104026020016040519081016040528092919081815260200182805460018160011615610100020316600290048015610ced5780601f10610cc257610100808354040283529160200191610ced565b820191906000526020600020905b815481529060010190602001808311610cd057829003601f168201915b5050505050905087565b6000809054906101000a900473ffffffffffffffffffffffffffffffffffffffff1673ffffffffffffffffffffffffffffffffffffffff163373ffffffffffffffffffffffffffffffffffffffff1614610d5057600080fd5b600b60008373ffffffffffffffffffffffffffffffffffffffff1673ffffffffffffffffffffffffffffffffffffffff16815260200190815260200160002060009054906101000a900460ff16610ddc576040517f08c379a0000000000000000000000000000000000000000000000000000000008152600401610dd390614841565b60405180910390fd5b6000600460008473ffffffffffffffffffffffffffffffffffffffff1673ffffffffffffffffffffffffffffffffffffffff168152602001908152602001600020905080600701829080600181540180825580915050906001820390600052602060002001600090919290919091509080519060200190610e5e929190613a6f565b5050505050565b6000809054906101000a900473ffffffffffffffffffffffffffffffffffffffff1673ffffffffffffffffffffffffffffffffffffffff163373ffffffffffffffffffffffffffffffffffffffff1614610ebe57600080fd5b600660008273ffffffffffffffffffffffffffffffffffffffff1673ffffffffffffffffffffffffffffffffffffffff16815260200190815260200160002060009054906101000a900460ff16610f4a576040517f08c379a0000000000000000000000000000000000000000000000000000000008152600401610f4190614861565b60405180910390fd5b6000600260008373ffffffffffffffffffffffffffffffffffffffff1673ffffffffffffffffffffffffffffffffffffffff168152602001908152602001600020905060018160020160006101000a81548160ff0219169083151502179055506001600960008473ffffffffffffffffffffffffffffffffffffffff1673ffffffffffffffffffffffffffffffffffffffff16815260200190815260200160002060006101000a81548160ff0219169083151502179055505050565b6000600260008873ffffffffffffffffffffffffffffffffffffffff1673ffffffffffffffffffffffffffffffffffffffff168152602001908152602001600020905085816000019080519060200190611061929190613a6f565b508481600101908051906020019061107a929190613a6f565b5083816003019080519060200190611093929190613a6f565b50828160040190805190602001906110ac929190613a6f565b50818160060190805190602001906110c5929190613a6f565b506001600660008973ffffffffffffffffffffffffffffffffffffffff1673ffffffffffffffffffffffffffffffffffffffff16815260200190815260200160002060006101000a81548160ff02191690831515021790555050505050505050565b61112f613aef565b600160008373ffffffffffffffffffffffffffffffffffffffff1673ffffffffffffffffffffffffffffffffffffffff1681526020019081526020016000206040518060c0016040529081600082018054600181600116156101000203166002900480601f0160208091040260200160405190810160405280929190818152602001828054600181600116156101000203166002900480156112125780601f106111e757610100808354040283529160200191611212565b820191906000526020600020905b8154815290600101906020018083116111f557829003601f168201915b50505050508152602001600182018054600181600116156101000203166002900480601f0160208091040260200160405190810160405280929190818152602001828054600181600116156101000203166002900480156112b45780601f10611289576101008083540402835291602001916112b4565b820191906000526020600020905b81548152906001019060200180831161129757829003601f168201915b50505050508152602001600282018054600181600116156101000203166002900480601f0160208091040260200160405190810160405280929190818152602001828054600181600116156101000203166002900480156113565780601f1061132b57610100808354040283529160200191611356565b820191906000526020600020905b81548152906001019060200180831161133957829003601f168201915b5050505050815260200160038201805480602002602001604051908101604052809291908181526020016000905b828210156115fc57838290600052602060002090600502016040518060a00160405290816000820160009054906101000a900473ffffffffffffffffffffffffffffffffffffffff1673ffffffffffffffffffffffffffffffffffffffff1673ffffffffffffffffffffffffffffffffffffffff168152602001600182018054600181600116156101000203166002900480601f0160208091040260200160405190810160405280929190818152602001828054600181600116156101000203166002900480156114965780601f1061146b57610100808354040283529160200191611496565b820191906000526020600020905b81548152906001019060200180831161147957829003601f168201915b50505050508152602001600282018054600181600116156101000203166002900480601f0160208091040260200160405190810160405280929190818152602001828054600181600116156101000203166002900480156115385780601f1061150d57610100808354040283529160200191611538565b820191906000526020600020905b81548152906001019060200180831161151b57829003601f168201915b50505050508152602001600382018054600181600116156101000203166002900480601f0160208091040260200160405190810160405280929190818152602001828054600181600116156101000203166002900480156115da5780601f106115af576101008083540402835291602001916115da565b820191906000526020600020905b8154815290600101906020018083116115bd57829003601f168201915b5050505050815260200160048201548152505081526020019060010190611384565b50505050815260200160048201805480602002602001604051908101604052809291908181526020016000905b828210156117ff57838290600052602060002090600402016040518060800160405290816000820160009054906101000a900473ffffffffffffffffffffffffffffffffffffffff1673ffffffffffffffffffffffffffffffffffffffff1673ffffffffffffffffffffffffffffffffffffffff168152602001600182018054600181600116156101000203166002900480601f01602080910402602001604051908101604052809291908181526020018280546001816001161561010002031660029004801561173b5780601f106117105761010080835404028352916020019161173b565b820191906000526020600020905b81548152906001019060200180831161171e57829003601f168201915b50505050508152602001600282018054600181600116156101000203166002900480601f0160208091040260200160405190810160405280929190818152602001828054600181600116156101000203166002900480156117dd5780601f106117b2576101008083540402835291602001916117dd565b820191906000526020600020905b8154815290600101906020018083116117c057829003601f168201915b5050505050815260200160038201548152505081526020019060010190611629565b50505050815260200160058201805480602002602001604051908101604052809291908181526020016000905b82821015611aa457838290600052602060002090600502016040518060a00160405290816000820160009054906101000a900473ffffffffffffffffffffffffffffffffffffffff1673ffffffffffffffffffffffffffffffffffffffff1673ffffffffffffffffffffffffffffffffffffffff168152602001600182018054600181600116156101000203166002900480601f01602080910402602001604051908101604052809291908181526020018280546001816001161561010002031660029004801561193e5780601f106119135761010080835404028352916020019161193e565b820191906000526020600020905b81548152906001019060200180831161192157829003601f168201915b50505050508152602001600282018054600181600116156101000203166002900480601f0160208091040260200160405190810160405280929190818152602001828054600181600116156101000203166002900480156119e05780601f106119b5576101008083540402835291602001916119e0565b820191906000526020600020905b8154815290600101906020018083116119c357829003601f168201915b50505050508152602001600382018054600181600116156101000203166002900480601f016020809104026020016040519081016040528092919081815260200182805460018160011615610100020316600290048015611a825780601f10611a5757610100808354040283529160200191611a82565b820191906000526020600020905b815481529060010190602001808311611a6557829003601f168201915b505050505081526020016004820154815250508152602001906001019061182c565b50505050815250509050919050565b6001602052806000526040600020600091509050806000018054600181600116156101000203166002900480601f016020809104026020016040519081016040528092919081815260200182805460018160011615610100020316600290048015611b5f5780601f10611b3457610100808354040283529160200191611b5f565b820191906000526020600020905b815481529060010190602001808311611b4257829003601f168201915b505050505090806001018054600181600116156101000203166002900480601f016020809104026020016040519081016040528092919081815260200182805460018160011615610100020316600290048015611bfd5780601f10611bd257610100808354040283529160200191611bfd565b820191906000526020600020905b815481529060010190602001808311611be057829003601f168201915b505050505090806002018054600181600116156101000203166002900480601f016020809104026020016040519081016040528092919081815260200182805460018160011615610100020316600290048015611c9b5780601f10611c7057610100808354040283529160200191611c9b565b820191906000526020600020905b815481529060010190602001808311611c7e57829003601f168201915b5050505050905083565b600c6020528060005260406000206000915054906101000a900473ffffffffffffffffffffffffffffffffffffffff1681565b6000809054906101000a900473ffffffffffffffffffffffffffffffffffffffff1673ffffffffffffffffffffffffffffffffffffffff163373ffffffffffffffffffffffffffffffffffffffff1614611d3157600080fd5b600a60008373ffffffffffffffffffffffffffffffffffffffff1673ffffffffffffffffffffffffffffffffffffffff16815260200190815260200160002060009054906101000a900460ff16611dbd576040517f08c379a0000000000000000000000000000000000000000000000000000000008152600401611db490614841565b60405180910390fd5b6000600360008473ffffffffffffffffffffffffffffffffffffffff1673ffffffffffffffffffffffffffffffffffffffff168152602001908152602001600020905080600701829080600181540180825580915050906001820390600052602060002001600090919290919091509080519060200190611e3f929190613a6f565b5050505050565b600a6020528060005260406000206000915054906101000a900460ff1681565b600b6020528060005260406000206000915054906101000a900460ff1681565b6000600360008873ffffffffffffffffffffffffffffffffffffffff1673ffffffffffffffffffffffffffffffffffffffff168152602001908152602001600020905085816000019080519060200190611ee1929190613a6f565b5084816001019080519060200190611efa929190613a6f565b5083816003019080519060200190611f13929190613a6f565b5082816004019080519060200190611f2c929190613a6f565b5081816006019080519060200190611f45929190613a6f565b506001600760008973ffffffffffffffffffffffffffffffffffffffff1673ffffffffffffffffffffffffffffffffffffffff16815260200190815260200160002060006101000a81548160ff02191690831515021790555050505050505050565b6000600460008873ffffffffffffffffffffffffffffffffffffffff1673ffffffffffffffffffffffffffffffffffffffff168152602001908152602001600020905085816000019080519060200190612002929190613a6f565b508481600101908051906020019061201b929190613a6f565b5083816003019080519060200190612034929190613a6f565b508281600401908051906020019061204d929190613a6f565b5081816006019080519060200190612066929190613a6f565b506001600860008973ffffffffffffffffffffffffffffffffffffffff1673ffffffffffffffffffffffffffffffffffffffff16815260200190815260200160002060006101000a81548160ff02191690831515021790555050505050505050565b6003602052806000526040600020600091509050806000018054600181600116156101000203166002900480601f0160208091040260200160405190810160405280929190818152602001828054600181600116156101000203166002900480156121745780601f1061214957610100808354040283529160200191612174565b820191906000526020600020905b81548152906001019060200180831161215757829003601f168201915b505050505090806001018054600181600116156101000203166002900480601f0160208091040260200160405190810160405280929190818152602001828054600181600116156101000203166002900480156122125780601f106121e757610100808354040283529160200191612212565b820191906000526020600020905b8154815290600101906020018083116121f557829003601f168201915b5050505050908060020160009054906101000a900460ff1690806003018054600181600116156101000203166002900480601f0160208091040260200160405190810160405280929190818152602001828054600181600116156101000203166002900480156122c35780601f10612298576101008083540402835291602001916122c3565b820191906000526020600020905b8154815290600101906020018083116122a657829003601f168201915b505050505090806004018054600181600116156101000203166002900480601f0160208091040260200160405190810160405280929190818152602001828054600181600116156101000203166002900480156123615780601f1061233657610100808354040283529160200191612361565b820191906000526020600020905b81548152906001019060200180831161234457829003601f168201915b505050505090806005018054600181600116156101000203166002900480601f0160208091040260200160405190810160405280929190818152602001828054600181600116156101000203166002900480156123ff5780601f106123d4576101008083540402835291602001916123ff565b820191906000526020600020905b8154815290600101906020018083116123e257829003601f168201915b505050505090806006018054600181600116156101000203166002900480601f01602080910402602001604051908101604052809291908181526020018280546001816001161561010002031660029004801561249d5780601f106124725761010080835404028352916020019161249d565b820191906000526020600020905b81548152906001019060200180831161248057829003601f168201915b5050505050905087565b6124af613b25565b600260008373ffffffffffffffffffffffffffffffffffffffff1673ffffffffffffffffffffffffffffffffffffffff16815260200190815260200160002060405180610100016040529081600082018054600181600116156101000203166002900480601f0160208091040260200160405190810160405280929190818152602001828054600181600116156101000203166002900480156125935780601f1061256857610100808354040283529160200191612593565b820191906000526020600020905b81548152906001019060200180831161257657829003601f168201915b50505050508152602001600182018054600181600116156101000203166002900480601f0160208091040260200160405190810160405280929190818152602001828054600181600116156101000203166002900480156126355780601f1061260a57610100808354040283529160200191612635565b820191906000526020600020905b81548152906001019060200180831161261857829003601f168201915b505050505081526020016002820160009054906101000a900460ff16151515158152602001600382018054600181600116156101000203166002900480601f0160208091040260200160405190810160405280929190818152602001828054600181600116156101000203166002900480156126f25780601f106126c7576101008083540402835291602001916126f2565b820191906000526020600020905b8154815290600101906020018083116126d557829003601f168201915b50505050508152602001600482018054600181600116156101000203166002900480601f0160208091040260200160405190810160405280929190818152602001828054600181600116156101000203166002900480156127945780601f1061276957610100808354040283529160200191612794565b820191906000526020600020905b81548152906001019060200180831161277757829003601f168201915b50505050508152602001600582018054600181600116156101000203166002900480601f0160208091040260200160405190810160405280929190818152602001828054600181600116156101000203166002900480156128365780601f1061280b57610100808354040283529160200191612836565b820191906000526020600020905b81548152906001019060200180831161281957829003601f168201915b50505050508152602001600682018054600181600116156101000203166002900480601f0160208091040260200160405190810160405280929190818152602001828054600181600116156101000203166002900480156128d85780601f106128ad576101008083540402835291602001916128d8565b820191906000526020600020905b8154815290600101906020018083116128bb57829003601f168201915b5050505050815260200160078201805480602002602001604051908101604052809291908181526020016000905b828210156129c2578382906000526020600020018054600181600116156101000203166002900480601f0160208091040260200160405190810160405280929190818152602001828054600181600116156101000203166002900480156129ae5780601f10612983576101008083540402835291602001916129ae565b820191906000526020600020905b81548152906001019060200180831161299157829003601f168201915b505050505081526020019060010190612906565b50505050815250509050919050565b60066020528060005260406000206000915054906101000a900460ff1681565b60086020528060005260406000206000915054906101000a900460ff1681565b600960008473ffffffffffffffffffffffffffffffffffffffff1673ffffffffffffffffffffffffffffffffffffffff16815260200190815260200160002060009054906101000a900460ff1680612ab25750600a60008473ffffffffffffffffffffffffffffffffffffffff1673ffffffffffffffffffffffffffffffffffffffff16815260200190815260200160002060009054906101000a900460ff165b80612b065750600b60008473ffffffffffffffffffffffffffffffffffffffff1673ffffffffffffffffffffffffffffffffffffffff16815260200190815260200160002060009054906101000a900460ff165b612b45576040517f08c379a0000000000000000000000000000000000000000000000000000000008152600401612b3c90614801565b60405180910390fd5b600560008573ffffffffffffffffffffffffffffffffffffffff1673ffffffffffffffffffffffffffffffffffffffff16815260200190815260200160002060009054906101000a900460ff16612bd1576040517f08c379a0000000000000000000000000000000000000000000000000000000008152600401612bc890614821565b60405180910390fd5b6000600160008673ffffffffffffffffffffffffffffffffffffffff1673ffffffffffffffffffffffffffffffffffffffff1681526020019081526020016000209050600960008573ffffffffffffffffffffffffffffffffffffffff1673ffffffffffffffffffffffffffffffffffffffff16815260200190815260200160002060009054906101000a900460ff1615612dbf57612c6e613b6c565b6040518060a001604052808673ffffffffffffffffffffffffffffffffffffffff1681526020016040518060400160405280600d81526020017f736f6d65206f7267206e616d6500000000000000000000000000000000000000815250815260200184815260200185815260200142815250905081600301819080600181540180825580915050906001820390600052602060002090600502016000909192909190915060008201518160000160006101000a81548173ffffffffffffffffffffffffffffffffffffffff021916908373ffffffffffffffffffffffffffffffffffffffff1602179055506020820151816001019080519060200190612d75929190613bb1565b506040820151816002019080519060200190612d92929190613bb1565b506060820151816003019080519060200190612daf929190613bb1565b5060808201518160040155505050505b600a60008573ffffffffffffffffffffffffffffffffffffffff1673ffffffffffffffffffffffffffffffffffffffff16815260200190815260200160002060009054906101000a900460ff1615612f1257612e19613c31565b60405180608001604052808673ffffffffffffffffffffffffffffffffffffffff16815260200184815260200185815260200142815250905081600401819080600181540180825580915050906001820390600052602060002090600402016000909192909190915060008201518160000160006101000a81548173ffffffffffffffffffffffffffffffffffffffff021916908373ffffffffffffffffffffffffffffffffffffffff1602179055506020820151816001019080519060200190612ee5929190613bb1565b506040820151816002019080519060200190612f02929190613bb1565b5060608201518160030155505050505b600b60008573ffffffffffffffffffffffffffffffffffffffff1673ffffffffffffffffffffffffffffffffffffffff16815260200190815260200160002060009054906101000a900460ff16156130bd57612f6c613c6f565b6040518060a001604052808673ffffffffffffffffffffffffffffffffffffffff1681526020016040518060400160405280600d81526020017f736f6d65206f7267206e616d6500000000000000000000000000000000000000815250815260200184815260200185815260200142815250905081600501819080600181540180825580915050906001820390600052602060002090600502016000909192909190915060008201518160000160006101000a81548173ffffffffffffffffffffffffffffffffffffffff021916908373ffffffffffffffffffffffffffffffffffffffff1602179055506020820151816001019080519060200190613073929190613bb1565b506040820151816002019080519060200190613090929190613bb1565b5060608201518160030190805190602001906130ad929190613bb1565b5060808201518160040155505050505b5050505050565b60008060009054906101000a900473ffffffffffffffffffffffffffffffffffffffff1673ffffffffffffffffffffffffffffffffffffffff168273ffffffffffffffffffffffffffffffffffffffff16141561312457600190506132b1565b60011515600560008473ffffffffffffffffffffffffffffffffffffffff1673ffffffffffffffffffffffffffffffffffffffff16815260200190815260200160002060009054906101000a900460ff161515141561318657600290506132b1565b60011515600660008473ffffffffffffffffffffffffffffffffffffffff1673ffffffffffffffffffffffffffffffffffffffff16815260200190815260200160002060009054906101000a900460ff16151514156131e857600390506132b1565b60011515600860008473ffffffffffffffffffffffffffffffffffffffff1673ffffffffffffffffffffffffffffffffffffffff16815260200190815260200160002060009054906101000a900460ff161515141561324a57600490506132b1565b60011515600760008473ffffffffffffffffffffffffffffffffffffffff1673ffffffffffffffffffffffffffffffffffffffff16815260200190815260200160002060009054906101000a900460ff16151514156132ac57600590506132b1565b600090505b919050565b6002602052806000526040600020600091509050806000018054600181600116156101000203166002900480601f0160208091040260200160405190810160405280929190818152602001828054600181600116156101000203166002900480156133625780601f1061333757610100808354040283529160200191613362565b820191906000526020600020905b81548152906001019060200180831161334557829003601f168201915b505050505090806001018054600181600116156101000203166002900480601f0160208091040260200160405190810160405280929190818152602001828054600181600116156101000203166002900480156134005780601f106133d557610100808354040283529160200191613400565b820191906000526020600020905b8154815290600101906020018083116133e357829003601f168201915b5050505050908060020160009054906101000a900460ff1690806003018054600181600116156101000203166002900480601f0160208091040260200160405190810160405280929190818152602001828054600181600116156101000203166002900480156134b15780601f10613486576101008083540402835291602001916134b1565b820191906000526020600020905b81548152906001019060200180831161349457829003601f168201915b505050505090806004018054600181600116156101000203166002900480601f01602080910402602001604051908101604052809291908181526020018280546001816001161561010002031660029004801561354f5780601f106135245761010080835404028352916020019161354f565b820191906000526020600020905b81548152906001019060200180831161353257829003601f168201915b505050505090806005018054600181600116156101000203166002900480601f0160208091040260200160405190810160405280929190818152602001828054600181600116156101000203166002900480156135ed5780601f106135c2576101008083540402835291602001916135ed565b820191906000526020600020905b8154815290600101906020018083116135d057829003601f168201915b505050505090806006018054600181600116156101000203166002900480601f01602080910402602001604051908101604052809291908181526020018280546001816001161561010002031660029004801561368b5780601f106136605761010080835404028352916020019161368b565b820191906000526020600020905b81548152906001019060200180831161366e57829003601f168201915b5050505050905087565b60056020528060005260406000206000915054906101000a900460ff1681565b600d6020528060005260406000206000915054906101000a900473ffffffffffffffffffffffffffffffffffffffff1681565b6000809054906101000a900473ffffffffffffffffffffffffffffffffffffffff1673ffffffffffffffffffffffffffffffffffffffff163373ffffffffffffffffffffffffffffffffffffffff161461374157600080fd5b600760008273ffffffffffffffffffffffffffffffffffffffff1673ffffffffffffffffffffffffffffffffffffffff16815260200190815260200160002060009054906101000a900460ff166137cd576040517f08c379a00000000000000000000000000000000000000000000000000000000081526004016137c490614861565b60405180910390fd5b6000600360008373ffffffffffffffffffffffffffffffffffffffff1673ffffffffffffffffffffffffffffffffffffffff168152602001908152602001600020905060018160020160006101000a81548160ff0219169083151502179055506001600a60008473ffffffffffffffffffffffffffffffffffffffff1673ffffffffffffffffffffffffffffffffffffffff16815260200190815260200160002060006101000a81548160ff0219169083151502179055505050565b6000809054906101000a900473ffffffffffffffffffffffffffffffffffffffff1673ffffffffffffffffffffffffffffffffffffffff163373ffffffffffffffffffffffffffffffffffffffff16146138e257600080fd5b600960008373ffffffffffffffffffffffffffffffffffffffff1673ffffffffffffffffffffffffffffffffffffffff16815260200190815260200160002060009054906101000a900460ff1661396e576040517f08c379a000000000000000000000000000000000000000000000000000000000815260040161396590614841565b60405180910390fd5b6000600260008473ffffffffffffffffffffffffffffffffffffffff1673ffffffffffffffffffffffffffffffffffffffff1681526020019081526020016000209050806007018290806001815401808255809150509060018203906000526020600020016000909192909190915090805190602001906139f0929190613a6f565b5050505050565b60076020528060005260406000206000915054906101000a900460ff1681565b600e6020528060005260406000206000915054906101000a900473ffffffffffffffffffffffffffffffffffffffff1681565b6000809054906101000a900473ffffffffffffffffffffffffffffffffffffffff1681565b828054600181600116156101000203166002900490600052602060002090601f016020900481019282601f10613ab057805160ff1916838001178555613ade565b82800160010185558215613ade579182015b82811115613add578251825591602001919060010190613ac2565b5b509050613aeb9190613cb4565b5090565b6040518060c001604052806060815260200160608152602001606081526020016060815260200160608152602001606081525090565b604051806101000160405280606081526020016060815260200160001515815260200160608152602001606081526020016060815260200160608152602001606081525090565b6040518060a00160405280600073ffffffffffffffffffffffffffffffffffffffff168152602001606081526020016060815260200160608152602001600081525090565b828054600181600116156101000203166002900490600052602060002090601f016020900481019282601f10613bf257805160ff1916838001178555613c20565b82800160010185558215613c20579182015b82811115613c1f578251825591602001919060010190613c04565b5b509050613c2d9190613cb4565b5090565b6040518060800160405280600073ffffffffffffffffffffffffffffffffffffffff1681526020016060815260200160608152602001600081525090565b6040518060a00160405280600073ffffffffffffffffffffffffffffffffffffffff168152602001606081526020016060815260200160608152602001600081525090565b613cd691905b80821115613cd2576000816000905550600101613cba565b5090565b90565b600081359050613ce881614ae5565b92915050565b600082601f830112613cff57600080fd5b8135613d12613d0d8261490d565b6148e0565b91508082526020830160208301858383011115613d2e57600080fd5b613d39838284614a92565b50505092915050565b600060208284031215613d5457600080fd5b6000613d6284828501613cd9565b91505092915050565b60008060008060808587031215613d8157600080fd5b6000613d8f87828801613cd9565b9450506020613da087828801613cd9565b935050604085013567ffffffffffffffff811115613dbd57600080fd5b613dc987828801613cee565b925050606085013567ffffffffffffffff811115613de657600080fd5b613df287828801613cee565b91505092959194509250565b60008060408385031215613e1157600080fd5b6000613e1f85828601613cd9565b925050602083013567ffffffffffffffff811115613e3c57600080fd5b613e4885828601613cee565b9150509250929050565b60008060008060808587031215613e6857600080fd5b6000613e7687828801613cd9565b945050602085013567ffffffffffffffff811115613e9357600080fd5b613e9f87828801613cee565b935050604085013567ffffffffffffffff811115613ebc57600080fd5b613ec887828801613cee565b925050606085013567ffffffffffffffff811115613ee557600080fd5b613ef187828801613cee565b91505092959194509250565b60008060008060008060c08789031215613f1657600080fd5b6000613f2489828a01613cd9565b965050602087013567ffffffffffffffff811115613f4157600080fd5b613f4d89828a01613cee565b955050604087013567ffffffffffffffff811115613f6a57600080fd5b613f7689828a01613cee565b945050606087013567ffffffffffffffff811115613f9357600080fd5b613f9f89828a01613cee565b935050608087013567ffffffffffffffff811115613fbc57600080fd5b613fc889828a01613cee565b92505060a087013567ffffffffffffffff811115613fe557600080fd5b613ff189828a01613cee565b9150509295509295509295565b600061400a838361425e565b905092915050565b600061401e83836143d0565b905092915050565b6000614032838361443a565b905092915050565b600061404683836144be565b905092915050565b61405781614a4a565b82525050565b61406681614a4a565b82525050565b600061407782614979565b61408181856149e4565b93508360208202850161409385614939565b8060005b858110156140cf57848403895281516140b08582613ffe565b94506140bb836149b0565b925060208a01995050600181019050614097565b50829750879550505050505092915050565b60006140ec82614984565b6140f681856149f5565b93508360208202850161410885614949565b8060005b8581101561414457848403895281516141258582614012565b9450614130836149bd565b925060208a0199505060018101905061410c565b50829750879550505050505092915050565b60006141618261498f565b61416b8185614a06565b93508360208202850161417d85614959565b8060005b858110156141b9578484038952815161419a8582614026565b94506141a5836149ca565b925060208a01995050600181019050614181565b50829750879550505050505092915050565b60006141d68261499a565b6141e08185614a17565b9350836020820285016141f285614969565b8060005b8581101561422e578484038952815161420f858261403a565b945061421a836149d7565b925060208a019950506001810190506141f6565b50829750879550505050505092915050565b61424981614a5c565b82525050565b61425881614a5c565b82525050565b6000614269826149a5565b6142738185614a28565b9350614283818560208601614aa1565b61428c81614ad4565b840191505092915050565b60006142a2826149a5565b6142ac8185614a39565b93506142bc818560208601614aa1565b6142c581614ad4565b840191505092915050565b60006142dd601a83614a39565b91507f4f5247414e49534154494f4e204e4f54205645524946494544210000000000006000830152602082019050919050565b600061431d601683614a39565b91507f504552534f4e20444f4553204e4f5420455849535421000000000000000000006000830152602082019050919050565b600061435d601f83614a39565b91507f4f5247414e49534154494f4e20204953204e4f542056455249464945442121006000830152602082019050919050565b600061439d601c83614a39565b91507f4f5247414e49534154494f4e20444f4553204e4f5420455849535421000000006000830152602082019050919050565b60006080830160008301516143e8600086018261404e565b5060208301518482036020860152614400828261425e565b9150506040830151848203604086015261441a828261425e565b915050606083015161442f60608601826146c8565b508091505092915050565b600060a083016000830151614452600086018261404e565b506020830151848203602086015261446a828261425e565b91505060408301518482036040860152614484828261425e565b9150506060830151848203606086015261449e828261425e565b91505060808301516144b360808601826146c8565b508091505092915050565b600060a0830160008301516144d6600086018261404e565b50602083015184820360208601526144ee828261425e565b91505060408301518482036040860152614508828261425e565b91505060608301518482036060860152614522828261425e565b915050608083015161453760808601826146c8565b508091505092915050565b6000610100830160008301518482036000860152614560828261425e565b9150506020830151848203602086015261457a828261425e565b915050604083015161458f6040860182614240565b50606083015184820360608601526145a7828261425e565b915050608083015184820360808601526145c1828261425e565b91505060a083015184820360a08601526145db828261425e565b91505060c083015184820360c08601526145f5828261425e565b91505060e083015184820360e086015261460f828261406c565b9150508091505092915050565b600060c0830160008301518482036000860152614639828261425e565b91505060208301518482036020860152614653828261425e565b9150506040830151848203604086015261466d828261425e565b915050606083015184820360608601526146878282614156565b915050608083015184820360808601526146a182826140e1565b91505060a083015184820360a08601526146bb82826141cb565b9150508091505092915050565b6146d181614a88565b82525050565b6146e081614a88565b82525050565b60006020820190506146fb600083018461405d565b92915050565b6000602082019050614716600083018461424f565b92915050565b600060e0820190508181036000830152614736818a614297565b9050818103602083015261474a8189614297565b9050614759604083018861424f565b818103606083015261476b8187614297565b9050818103608083015261477f8186614297565b905081810360a08301526147938185614297565b905081810360c08301526147a78184614297565b905098975050505050505050565b600060608201905081810360008301526147cf8186614297565b905081810360208301526147e38185614297565b905081810360408301526147f78184614297565b9050949350505050565b6000602082019050818103600083015261481a816142d0565b9050919050565b6000602082019050818103600083015261483a81614310565b9050919050565b6000602082019050818103600083015261485a81614350565b9050919050565b6000602082019050818103600083015261487a81614390565b9050919050565b6000602082019050818103600083015261489b8184614542565b905092915050565b600060208201905081810360008301526148bd818461461c565b905092915050565b60006020820190506148da60008301846146d7565b92915050565b6000604051905081810181811067ffffffffffffffff8211171561490357600080fd5b8060405250919050565b600067ffffffffffffffff82111561492457600080fd5b601f19601f8301169050602081019050919050565b6000819050602082019050919050565b6000819050602082019050919050565b6000819050602082019050919050565b6000819050602082019050919050565b600081519050919050565b600081519050919050565b600081519050919050565b600081519050919050565b600081519050919050565b6000602082019050919050565b6000602082019050919050565b6000602082019050919050565b6000602082019050919050565b600082825260208201905092915050565b600082825260208201905092915050565b600082825260208201905092915050565b600082825260208201905092915050565b600082825260208201905092915050565b600082825260208201905092915050565b6000614a5582614a68565b9050919050565b60008115159050919050565b600073ffffffffffffffffffffffffffffffffffffffff82169050919050565b6000819050919050565b82818337600083830152505050565b60005b83811015614abf578082015181840152602081019050614aa4565b83811115614ace576000848401525b50505050565b6000601f19601f8301169050919050565b614aee81614a4a565b8114614af957600080fd5b5056fea365627a7a7231582071339c743283b16b2734d9be708ec57f541b7f53a907c1ed591373646d6ba3516c6578706572696d656e74616cf564736f6c63430005100040",
  "source": "pragma solidity >=0.4.21 <8.10.0;\r\npragma experimental ABIEncoderV2;\r\n\r\ncontract Aadhar {\r\n    address public admin;\r\n\r\n    struct Org_Education {\r\n        string name;\r\n        string org_id;\r\n        bool isVerified;\r\n        string location;\r\n        string about;\r\n        string physical_address;\r\n        string email;\r\n        string[] Docs; //Array of hashes\r\n    }\r\n\r\n    struct Org_Crime {\r\n        string name;\r\n        string org_id;\r\n        bool isVerified;\r\n        string location;\r\n        string about;\r\n        string physical_address;\r\n        string email;\r\n        string[] Docs; //Array of hashes\r\n    }\r\n    struct Org_Med {\r\n        string name;\r\n        string org_id;\r\n        bool isVerified;\r\n        string location;\r\n        string about;\r\n        string physical_address;\r\n        string email;\r\n        string[] Docs; //Array of hashes\r\n    }\r\n\r\n    struct Edu_data {\r\n        address org_address;\r\n        string org_name;\r\n        string Description;\r\n        string Hash; //hash of the doc\r\n        uint256 timeStamp; //use \"now\" to store current time\r\n    }\r\n\r\n    struct Crime_data {\r\n        address org_address;\r\n        string Description;\r\n        string Hash; //hash of the doc\r\n        uint256 timeStamp; //use \"now\" to store current time\r\n    }\r\n\r\n    struct Med_data {\r\n        address org_address;\r\n        string org_name;\r\n        string Description;\r\n        string Hash; //hash of the doc\r\n        uint256 timeStamp; //use \"now\" to store current time\r\n    }\r\n    struct Person {\r\n        string name;\r\n        string AadharNo;\r\n        string Gender;\r\n        Edu_data[] Educations;\r\n        Crime_data[] Crimes;\r\n        Med_data[] Medical;\r\n    }\r\n\r\n    mapping(address => Person) public address_person_map;\r\n    mapping(address => Org_Education) public address_edu_map;\r\n    mapping(address => Org_Crime) public address_crime_map;\r\n    mapping(address => Org_Med) public address_med_map;\r\n\r\n    mapping(address => bool) public exists_address_person_map;\r\n    mapping(address => bool) public exists_address_edu_map;\r\n    mapping(address => bool) public exists_address_crime_map;\r\n    mapping(address => bool) public exists_address_med_map;\r\n\r\n    mapping(address => bool) public verified_address_edu_map;\r\n    mapping(address => bool) public verified_address_crime_map;\r\n    mapping(address => bool) public verified_address_med_map;\r\n\r\n    mapping(address => address) public person_to_edu_org;\r\n    mapping(address => address) public person_to_crime_org;\r\n    mapping(address => address) public person_to_med_org;\r\n\r\n    constructor() public {\r\n        admin = msg.sender;\r\n    }\r\n\r\n    function registerEduOrg(\r\n        address org_address,\r\n        string memory name,\r\n        string memory org_id,\r\n        string memory location,\r\n        string memory about,\r\n        string memory email\r\n    ) public {\r\n        // Check if exists\r\n        Org_Education storage org = address_edu_map[org_address];\r\n        org.name = name;\r\n        org.org_id = org_id;\r\n        org.location = location;\r\n        org.about = about;\r\n        org.email = email;\r\n\r\n        exists_address_edu_map[org_address] = true;\r\n    }\r\n\r\n    function registerCrimeOrg(\r\n        address org_address,\r\n        string memory name,\r\n        string memory org_id,\r\n        string memory location,\r\n        string memory about,\r\n        string memory email\r\n    ) public {\r\n        Org_Crime storage org = address_crime_map[org_address];\r\n        org.name = name;\r\n        org.org_id = org_id;\r\n        org.location = location;\r\n        org.about = about;\r\n        org.email = email;\r\n\r\n        exists_address_crime_map[org_address] = true;\r\n    }\r\n\r\n    function registerMedOrg(\r\n        address org_address,\r\n        string memory name,\r\n        string memory org_id,\r\n        string memory location,\r\n        string memory about,\r\n        string memory email\r\n    ) public {\r\n        // Check if exists\r\n        Org_Med storage org = address_med_map[org_address];\r\n        org.name = name;\r\n        org.org_id = org_id;\r\n        org.location = location;\r\n        org.about = about;\r\n        org.email = email;\r\n\r\n        exists_address_med_map[org_address] = true;\r\n    }\r\n\r\n    function registerPerson(\r\n        address person_address,\r\n        string memory name,\r\n        string memory Gender,\r\n        string memory AadharNo\r\n    ) public {\r\n        Person storage per = address_person_map[person_address];\r\n        per.name = name;\r\n        per.Gender = Gender;\r\n        per.AadharNo = AadharNo;\r\n\r\n        exists_address_person_map[person_address] = true;\r\n    }\r\n\r\n    function getPerson(address person_address) public view returns (Person memory){\r\n        return address_person_map[person_address];\r\n    }\r\n\r\n    function getEduOrg(address org_address) public view returns (Org_Education memory){\r\n        return address_edu_map[org_address];\r\n    }\r\n\r\n    function checkRole(address my_address) public view returns (uint256) {\r\n        if(my_address == admin) {return 1;}\r\n        if(exists_address_person_map[my_address] == true){ return 2; }\r\n        if(exists_address_edu_map[my_address] == true){ return 3; }\r\n        if(exists_address_med_map[my_address] == true){ return 4; }\r\n        if(exists_address_crime_map[my_address] == true){ return 5; }\r\n        return 0;\r\n    }\r\n\r\n    function addPersonDoc(\r\n        address person_address,\r\n        address org_address,\r\n        string memory doc_hash,\r\n        string memory Description\r\n    ) public {\r\n        require(\r\n            verified_address_edu_map[org_address] ||\r\n                verified_address_crime_map[org_address] ||\r\n                verified_address_med_map[org_address],\r\n            \"ORGANISATION NOT VERIFIED!\"\r\n        );\r\n        require(\r\n            exists_address_person_map[person_address],\r\n            \"PERSON DOES NOT EXIST!\"\r\n        );\r\n        Person storage per = address_person_map[person_address];\r\n\r\n        if (verified_address_edu_map[org_address]) {\r\n            Edu_data memory tempData = Edu_data(\r\n                org_address,\r\n                \"some org name\",\r\n                Description,\r\n                doc_hash,\r\n                block.timestamp\r\n            );\r\n            per.Educations.push(tempData);\r\n        }\r\n\r\n        if (verified_address_crime_map[org_address]) {\r\n            Crime_data memory tempData = Crime_data(\r\n                org_address,\r\n                Description,\r\n                doc_hash,\r\n                block.timestamp\r\n            );\r\n            per.Crimes.push(tempData);\r\n        }\r\n        if (verified_address_med_map[org_address]) {\r\n            Med_data memory tempData = Med_data(\r\n                org_address,\r\n                \"some org name\",\r\n                Description,\r\n                doc_hash,\r\n                block.timestamp\r\n            );\r\n            per.Medical.push(tempData);\r\n        }\r\n    }\r\n\r\n    modifier onlyAdmin() {\r\n        require(msg.sender == admin);\r\n        _;\r\n    }\r\n\r\n    function verifyEduOrg(address org_address) public onlyAdmin {\r\n        require(\r\n            exists_address_edu_map[org_address],\r\n            \"ORGANISATION DOES NOT EXIST!\"\r\n        );\r\n        Org_Education storage temporg = address_edu_map[org_address];\r\n        temporg.isVerified = true;\r\n        verified_address_edu_map[org_address] = true;\r\n    }\r\n\r\n    function verifyCrimeOrg(address org_address) public onlyAdmin {\r\n        require(\r\n            exists_address_crime_map[org_address],\r\n            \"ORGANISATION DOES NOT EXIST!\"\r\n        );\r\n        Org_Crime storage temporg = address_crime_map[org_address];\r\n        temporg.isVerified = true;\r\n        verified_address_crime_map[org_address] = true;\r\n    }\r\n\r\n    function verifyMedOrg(address org_address) public onlyAdmin {\r\n        require(\r\n            exists_address_med_map[org_address],\r\n            \"ORGANISATION DOES NOT EXIST!\"\r\n        );\r\n        Org_Med storage temporg = address_med_map[org_address];\r\n        temporg.isVerified = true;\r\n        verified_address_med_map[org_address] = true;\r\n    }\r\n\r\n    function addEduOrgDocs(address org_address, string memory hash)\r\n        public\r\n        onlyAdmin\r\n    {\r\n        require(\r\n            verified_address_edu_map[org_address],\r\n            \"ORGANISATION  IS NOT VERIFIED!!\"\r\n        );\r\n        Org_Education storage temporg = address_edu_map[org_address];\r\n        temporg.Docs.push(hash);\r\n    }\r\n\r\n    function addCrimeOrgDocs(address org_address, string memory hash)\r\n        public\r\n        onlyAdmin\r\n    {\r\n        require(\r\n            verified_address_crime_map[org_address],\r\n            \"ORGANISATION  IS NOT VERIFIED!!\"\r\n        );\r\n        Org_Crime storage temporg = address_crime_map[org_address];\r\n        temporg.Docs.push(hash);\r\n    }\r\n\r\n    function addMedOrgDocs(address org_address, string memory hash)\r\n        public\r\n        onlyAdmin\r\n    {\r\n        require(\r\n            verified_address_med_map[org_address],\r\n            \"ORGANISATION  IS NOT VERIFIED!!\"\r\n        );\r\n        Org_Med storage temporg = address_med_map[org_address];\r\n        temporg.Docs.push(hash);\r\n    }\r\n    // function updatePersonDoc(address org_address, address person_address, string memory new_hash, string memory old_hash){\r\n    //     return;\r\n    // }\r\n}",
  "sourcePath": "A:\\KJSCE_Hack\\contracts\\Aadhar.sol",
  "compiler": {
    "name": "solc",
    "version": "0.5.16+commit.9c3226ce.Emscripten.clang"
  },
  "schemaVersion": "3.4.4",
  "updatedAt": "2022-02-12T10:31:16.931Z",
  "networkType": "ethereum",
  "devdoc": {
    "methods": {}
  },
  "userdoc": {
    "methods": {}
  }
}