{
  "contractName": "Aadhar",
  "abi": [
    {
      "inputs": [],
      "payable": false,
      "stateMutability": "nonpayable",
      "type": "constructor"
    },
    {
      "constant": true,
      "inputs": [
        {
          "internalType": "address",
          "name": "",
          "type": "address"
        }
      ],
      "name": "address_crime_map",
      "outputs": [
        {
          "internalType": "uint256",
          "name": "type_org",
          "type": "uint256"
        },
        {
          "internalType": "string",
          "name": "pic_hash",
          "type": "string"
        },
        {
          "internalType": "string",
          "name": "name",
          "type": "string"
        },
        {
          "internalType": "string",
          "name": "contactNo",
          "type": "string"
        },
        {
          "internalType": "bool",
          "name": "isVerified",
          "type": "bool"
        },
        {
          "internalType": "string",
          "name": "location",
          "type": "string"
        },
        {
          "internalType": "string",
          "name": "about",
          "type": "string"
        },
        {
          "internalType": "string",
          "name": "phyAdd",
          "type": "string"
        },
        {
          "internalType": "string",
          "name": "email",
          "type": "string"
        },
        {
          "internalType": "string",
          "name": "org_website_link",
          "type": "string"
        }
      ],
      "payable": false,
      "stateMutability": "view",
      "type": "function"
    },
    {
      "constant": true,
      "inputs": [
        {
          "internalType": "address",
          "name": "",
          "type": "address"
        }
      ],
      "name": "address_edu_map",
      "outputs": [
        {
          "internalType": "uint256",
          "name": "type_org",
          "type": "uint256"
        },
        {
          "internalType": "string",
          "name": "pic_hash",
          "type": "string"
        },
        {
          "internalType": "string",
          "name": "name",
          "type": "string"
        },
        {
          "internalType": "string",
          "name": "contactNo",
          "type": "string"
        },
        {
          "internalType": "bool",
          "name": "isVerified",
          "type": "bool"
        },
        {
          "internalType": "string",
          "name": "location",
          "type": "string"
        },
        {
          "internalType": "string",
          "name": "about",
          "type": "string"
        },
        {
          "internalType": "string",
          "name": "phyAdd",
          "type": "string"
        },
        {
          "internalType": "string",
          "name": "email",
          "type": "string"
        },
        {
          "internalType": "string",
          "name": "org_website_link",
          "type": "string"
        }
      ],
      "payable": false,
      "stateMutability": "view",
      "type": "function"
    },
    {
      "constant": true,
      "inputs": [
        {
          "internalType": "address",
          "name": "",
          "type": "address"
        }
      ],
      "name": "address_med_map",
      "outputs": [
        {
          "internalType": "uint256",
          "name": "type_org",
          "type": "uint256"
        },
        {
          "internalType": "string",
          "name": "pic_hash",
          "type": "string"
        },
        {
          "internalType": "string",
          "name": "name",
          "type": "string"
        },
        {
          "internalType": "string",
          "name": "contactNo",
          "type": "string"
        },
        {
          "internalType": "bool",
          "name": "isVerified",
          "type": "bool"
        },
        {
          "internalType": "string",
          "name": "location",
          "type": "string"
        },
        {
          "internalType": "string",
          "name": "about",
          "type": "string"
        },
        {
          "internalType": "string",
          "name": "phyAdd",
          "type": "string"
        },
        {
          "internalType": "string",
          "name": "email",
          "type": "string"
        },
        {
          "internalType": "string",
          "name": "org_website_link",
          "type": "string"
        }
      ],
      "payable": false,
      "stateMutability": "view",
      "type": "function"
    },
    {
      "constant": true,
      "inputs": [
        {
          "internalType": "address",
          "name": "",
          "type": "address"
        }
      ],
      "name": "address_person_map",
      "outputs": [
        {
          "internalType": "string",
          "name": "name",
          "type": "string"
        },
        {
          "internalType": "string",
          "name": "pic_hash",
          "type": "string"
        },
        {
          "internalType": "string",
          "name": "AadharNo",
          "type": "string"
        },
        {
          "internalType": "string",
          "name": "dob",
          "type": "string"
        },
        {
          "internalType": "string",
          "name": "contactNo",
          "type": "string"
        },
        {
          "internalType": "string",
          "name": "Gender",
          "type": "string"
        },
        {
          "internalType": "string",
          "name": "phyAddress",
          "type": "string"
        },
        {
          "internalType": "address",
          "name": "ethAddress",
          "type": "address"
        }
      ],
      "payable": false,
      "stateMutability": "view",
      "type": "function"
    },
    {
      "constant": true,
      "inputs": [],
      "name": "admin",
      "outputs": [
        {
          "internalType": "address",
          "name": "",
          "type": "address"
        }
      ],
      "payable": false,
      "stateMutability": "view",
      "type": "function"
    },
    {
      "constant": true,
      "inputs": [
        {
          "internalType": "address",
          "name": "",
          "type": "address"
        }
      ],
      "name": "exists_address_crime_map",
      "outputs": [
        {
          "internalType": "bool",
          "name": "",
          "type": "bool"
        }
      ],
      "payable": false,
      "stateMutability": "view",
      "type": "function"
    },
    {
      "constant": true,
      "inputs": [
        {
          "internalType": "address",
          "name": "",
          "type": "address"
        }
      ],
      "name": "exists_address_edu_map",
      "outputs": [
        {
          "internalType": "bool",
          "name": "",
          "type": "bool"
        }
      ],
      "payable": false,
      "stateMutability": "view",
      "type": "function"
    },
    {
      "constant": true,
      "inputs": [
        {
          "internalType": "address",
          "name": "",
          "type": "address"
        }
      ],
      "name": "exists_address_med_map",
      "outputs": [
        {
          "internalType": "bool",
          "name": "",
          "type": "bool"
        }
      ],
      "payable": false,
      "stateMutability": "view",
      "type": "function"
    },
    {
      "constant": true,
      "inputs": [
        {
          "internalType": "address",
          "name": "",
          "type": "address"
        }
      ],
      "name": "exists_address_person_map",
      "outputs": [
        {
          "internalType": "bool",
          "name": "",
          "type": "bool"
        }
      ],
      "payable": false,
      "stateMutability": "view",
      "type": "function"
    },
    {
      "constant": true,
      "inputs": [
        {
          "internalType": "address",
          "name": "",
          "type": "address"
        }
      ],
      "name": "person_to_crime_org",
      "outputs": [
        {
          "internalType": "address",
          "name": "",
          "type": "address"
        }
      ],
      "payable": false,
      "stateMutability": "view",
      "type": "function"
    },
    {
      "constant": true,
      "inputs": [
        {
          "internalType": "address",
          "name": "",
          "type": "address"
        }
      ],
      "name": "person_to_edu_org",
      "outputs": [
        {
          "internalType": "address",
          "name": "",
          "type": "address"
        }
      ],
      "payable": false,
      "stateMutability": "view",
      "type": "function"
    },
    {
      "constant": true,
      "inputs": [
        {
          "internalType": "address",
          "name": "",
          "type": "address"
        }
      ],
      "name": "person_to_med_org",
      "outputs": [
        {
          "internalType": "address",
          "name": "",
          "type": "address"
        }
      ],
      "payable": false,
      "stateMutability": "view",
      "type": "function"
    },
    {
      "constant": true,
      "inputs": [
        {
          "internalType": "address",
          "name": "",
          "type": "address"
        }
      ],
      "name": "verified_address_crime_map",
      "outputs": [
        {
          "internalType": "bool",
          "name": "",
          "type": "bool"
        }
      ],
      "payable": false,
      "stateMutability": "view",
      "type": "function"
    },
    {
      "constant": true,
      "inputs": [
        {
          "internalType": "address",
          "name": "",
          "type": "address"
        }
      ],
      "name": "verified_address_edu_map",
      "outputs": [
        {
          "internalType": "bool",
          "name": "",
          "type": "bool"
        }
      ],
      "payable": false,
      "stateMutability": "view",
      "type": "function"
    },
    {
      "constant": true,
      "inputs": [
        {
          "internalType": "address",
          "name": "",
          "type": "address"
        }
      ],
      "name": "verified_address_med_map",
      "outputs": [
        {
          "internalType": "bool",
          "name": "",
          "type": "bool"
        }
      ],
      "payable": false,
      "stateMutability": "view",
      "type": "function"
    },
    {
      "constant": false,
      "inputs": [
        {
          "internalType": "address",
          "name": "org_address",
          "type": "address"
        },
        {
          "internalType": "string",
          "name": "name",
          "type": "string"
        },
        {
          "internalType": "uint256",
          "name": "type_org",
          "type": "uint256"
        },
        {
          "internalType": "string",
          "name": "pic_hash",
          "type": "string"
        },
        {
          "internalType": "string",
          "name": "contactNo",
          "type": "string"
        },
        {
          "internalType": "string",
          "name": "location",
          "type": "string"
        },
        {
          "internalType": "string",
          "name": "about",
          "type": "string"
        },
        {
          "internalType": "string",
          "name": "phyAdd",
          "type": "string"
        },
        {
          "internalType": "string",
          "name": "email",
          "type": "string"
        },
        {
          "internalType": "string",
          "name": "website_link",
          "type": "string"
        }
      ],
      "name": "registerOrg",
      "outputs": [],
      "payable": false,
      "stateMutability": "nonpayable",
      "type": "function"
    },
    {
      "constant": false,
      "inputs": [
        {
          "internalType": "address",
          "name": "person_address",
          "type": "address"
        },
        {
          "internalType": "string",
          "name": "pic_hash",
          "type": "string"
        },
        {
          "internalType": "string",
          "name": "name",
          "type": "string"
        },
        {
          "internalType": "string",
          "name": "Gender",
          "type": "string"
        },
        {
          "internalType": "string",
          "name": "AadharNo",
          "type": "string"
        },
        {
          "internalType": "string",
          "name": "phyAddress",
          "type": "string"
        },
        {
          "internalType": "string",
          "name": "dob",
          "type": "string"
        },
        {
          "internalType": "string",
          "name": "contactNo",
          "type": "string"
        }
      ],
      "name": "registerPerson",
      "outputs": [],
      "payable": false,
      "stateMutability": "nonpayable",
      "type": "function"
    },
    {
      "constant": true,
      "inputs": [
        {
          "internalType": "address",
          "name": "person_address",
          "type": "address"
        }
      ],
      "name": "getPerson",
      "outputs": [
        {
          "components": [
            {
              "internalType": "string",
              "name": "name",
              "type": "string"
            },
            {
              "internalType": "string",
              "name": "pic_hash",
              "type": "string"
            },
            {
              "internalType": "string",
              "name": "AadharNo",
              "type": "string"
            },
            {
              "internalType": "string",
              "name": "dob",
              "type": "string"
            },
            {
              "internalType": "string",
              "name": "contactNo",
              "type": "string"
            },
            {
              "internalType": "string",
              "name": "Gender",
              "type": "string"
            },
            {
              "internalType": "string",
              "name": "phyAddress",
              "type": "string"
            },
            {
              "internalType": "address",
              "name": "ethAddress",
              "type": "address"
            },
            {
              "components": [
                {
                  "internalType": "address",
                  "name": "org_address",
                  "type": "address"
                },
                {
                  "internalType": "uint256",
                  "name": "org_type",
                  "type": "uint256"
                },
                {
                  "internalType": "string",
                  "name": "org_name",
                  "type": "string"
                },
                {
                  "internalType": "string",
                  "name": "doc_title",
                  "type": "string"
                },
                {
                  "internalType": "string",
                  "name": "Description",
                  "type": "string"
                },
                {
                  "internalType": "string",
                  "name": "Hash",
                  "type": "string"
                },
                {
                  "internalType": "uint256",
                  "name": "timeStamp",
                  "type": "uint256"
                }
              ],
              "internalType": "struct Aadhar.Person_data[]",
              "name": "Edu_data",
              "type": "tuple[]"
            },
            {
              "components": [
                {
                  "internalType": "address",
                  "name": "org_address",
                  "type": "address"
                },
                {
                  "internalType": "uint256",
                  "name": "org_type",
                  "type": "uint256"
                },
                {
                  "internalType": "string",
                  "name": "org_name",
                  "type": "string"
                },
                {
                  "internalType": "string",
                  "name": "doc_title",
                  "type": "string"
                },
                {
                  "internalType": "string",
                  "name": "Description",
                  "type": "string"
                },
                {
                  "internalType": "string",
                  "name": "Hash",
                  "type": "string"
                },
                {
                  "internalType": "uint256",
                  "name": "timeStamp",
                  "type": "uint256"
                }
              ],
              "internalType": "struct Aadhar.Person_data[]",
              "name": "Crime_data",
              "type": "tuple[]"
            },
            {
              "components": [
                {
                  "internalType": "address",
                  "name": "org_address",
                  "type": "address"
                },
                {
                  "internalType": "uint256",
                  "name": "org_type",
                  "type": "uint256"
                },
                {
                  "internalType": "string",
                  "name": "org_name",
                  "type": "string"
                },
                {
                  "internalType": "string",
                  "name": "doc_title",
                  "type": "string"
                },
                {
                  "internalType": "string",
                  "name": "Description",
                  "type": "string"
                },
                {
                  "internalType": "string",
                  "name": "Hash",
                  "type": "string"
                },
                {
                  "internalType": "uint256",
                  "name": "timeStamp",
                  "type": "uint256"
                }
              ],
              "internalType": "struct Aadhar.Person_data[]",
              "name": "Med_data",
              "type": "tuple[]"
            }
          ],
          "internalType": "struct Aadhar.Person",
          "name": "",
          "type": "tuple"
        }
      ],
      "payable": false,
      "stateMutability": "view",
      "type": "function"
    },
    {
      "constant": true,
      "inputs": [
        {
          "internalType": "address",
          "name": "org_address",
          "type": "address"
        }
      ],
      "name": "getOrg",
      "outputs": [
        {
          "components": [
            {
              "internalType": "uint256",
              "name": "type_org",
              "type": "uint256"
            },
            {
              "internalType": "string",
              "name": "pic_hash",
              "type": "string"
            },
            {
              "internalType": "string",
              "name": "name",
              "type": "string"
            },
            {
              "internalType": "string",
              "name": "contactNo",
              "type": "string"
            },
            {
              "internalType": "bool",
              "name": "isVerified",
              "type": "bool"
            },
            {
              "internalType": "string",
              "name": "location",
              "type": "string"
            },
            {
              "internalType": "string",
              "name": "about",
              "type": "string"
            },
            {
              "internalType": "string",
              "name": "phyAdd",
              "type": "string"
            },
            {
              "internalType": "string",
              "name": "email",
              "type": "string"
            },
            {
              "internalType": "string",
              "name": "org_website_link",
              "type": "string"
            }
          ],
          "internalType": "struct Aadhar.Organization",
          "name": "",
          "type": "tuple"
        }
      ],
      "payable": false,
      "stateMutability": "view",
      "type": "function"
    },
    {
      "constant": true,
      "inputs": [
        {
          "internalType": "address",
          "name": "user_address",
          "type": "address"
        },
        {
          "internalType": "uint256",
          "name": "org_type",
          "type": "uint256"
        }
      ],
      "name": "getDocsList",
      "outputs": [
        {
          "components": [
            {
              "internalType": "address",
              "name": "org_address",
              "type": "address"
            },
            {
              "internalType": "uint256",
              "name": "org_type",
              "type": "uint256"
            },
            {
              "internalType": "string",
              "name": "org_name",
              "type": "string"
            },
            {
              "internalType": "string",
              "name": "doc_title",
              "type": "string"
            },
            {
              "internalType": "string",
              "name": "Description",
              "type": "string"
            },
            {
              "internalType": "string",
              "name": "Hash",
              "type": "string"
            },
            {
              "internalType": "uint256",
              "name": "timeStamp",
              "type": "uint256"
            }
          ],
          "internalType": "struct Aadhar.Person_data[]",
          "name": "",
          "type": "tuple[]"
        }
      ],
      "payable": false,
      "stateMutability": "view",
      "type": "function"
    },
    {
      "constant": true,
      "inputs": [
        {
          "internalType": "address",
          "name": "my_address",
          "type": "address"
        }
      ],
      "name": "checkRole",
      "outputs": [
        {
          "internalType": "uint256",
          "name": "",
          "type": "uint256"
        }
      ],
      "payable": false,
      "stateMutability": "view",
      "type": "function"
    },
    {
      "constant": false,
      "inputs": [
        {
          "internalType": "address",
          "name": "person_address",
          "type": "address"
        },
        {
          "internalType": "uint256",
          "name": "org_type",
          "type": "uint256"
        },
        {
          "internalType": "address",
          "name": "org_address",
          "type": "address"
        },
        {
          "internalType": "string",
          "name": "doc_hash",
          "type": "string"
        },
        {
          "internalType": "string",
          "name": "doc_title",
          "type": "string"
        },
        {
          "internalType": "string",
          "name": "Description",
          "type": "string"
        }
      ],
      "name": "addPersonDoc",
      "outputs": [],
      "payable": false,
      "stateMutability": "nonpayable",
      "type": "function"
    },
    {
      "constant": false,
      "inputs": [
        {
          "internalType": "address",
          "name": "org_address",
          "type": "address"
        }
      ],
      "name": "verifyOrg",
      "outputs": [],
      "payable": false,
      "stateMutability": "nonpayable",
      "type": "function"
    },
    {
      "constant": false,
      "inputs": [
        {
          "internalType": "address",
          "name": "org_address",
          "type": "address"
        }
      ],
      "name": "unverifyOrg",
      "outputs": [],
      "payable": false,
      "stateMutability": "nonpayable",
      "type": "function"
    },
    {
      "constant": false,
      "inputs": [
        {
          "internalType": "address",
          "name": "org_address",
          "type": "address"
        }
      ],
      "name": "verifyEduOrg",
      "outputs": [],
      "payable": false,
      "stateMutability": "nonpayable",
      "type": "function"
    },
    {
      "constant": false,
      "inputs": [
        {
          "internalType": "address",
          "name": "org_address",
          "type": "address"
        }
      ],
      "name": "unverifyEduOrg",
      "outputs": [],
      "payable": false,
      "stateMutability": "nonpayable",
      "type": "function"
    },
    {
      "constant": false,
      "inputs": [
        {
          "internalType": "address",
          "name": "org_address",
          "type": "address"
        }
      ],
      "name": "verifyCrimeOrg",
      "outputs": [],
      "payable": false,
      "stateMutability": "nonpayable",
      "type": "function"
    },
    {
      "constant": false,
      "inputs": [
        {
          "internalType": "address",
          "name": "org_address",
          "type": "address"
        }
      ],
      "name": "unverifyCrimeOrg",
      "outputs": [],
      "payable": false,
      "stateMutability": "nonpayable",
      "type": "function"
    },
    {
      "constant": false,
      "inputs": [
        {
          "internalType": "address",
          "name": "org_address",
          "type": "address"
        }
      ],
      "name": "verifyMedOrg",
      "outputs": [],
      "payable": false,
      "stateMutability": "nonpayable",
      "type": "function"
    },
    {
      "constant": false,
      "inputs": [
        {
          "internalType": "address",
          "name": "org_address",
          "type": "address"
        }
      ],
      "name": "unverifyMedOrg",
      "outputs": [],
      "payable": false,
      "stateMutability": "nonpayable",
      "type": "function"
    }
  ],
  "bytecode": "0x608060405234801561001057600080fd5b50600080546001600160a01b0319163317905561520b806100326000396000f3fe608060405234801561001057600080fd5b50600436106101da5760003560e01c80636d3a92eb11610104578063abd90b0d116100a2578063db3549da11610071578063db3549da1461043d578063e5500ca014610450578063f7a3f38814610463578063f851a44014610476576101da565b8063abd90b0d146103f1578063bebb8e4a14610404578063c1c1ba6d14610417578063cd923d5f1461042a576101da565b80639ade6cc2116100de5780639ade6cc214610398578063a0d7823e146103ab578063a7453b6a146103cb578063a7edaddc146103de576101da565b80636d3a92eb1461035f5780638dd5ed78146103725780639207030614610385576101da565b8063313965bf1161017c578063552d2d5c1161014b578063552d2d5c146102e55780635b5b18641461030557806361329d2e1461032c578063658d92571461034c576101da565b8063313965bf1461028c5780633accb59c1461029f578063493892ce146102b257806349ae67a6146102d2576101da565b806314b90345116101b857806314b9034514610230578063180d9ec4146102595780631f1f86521461026c57806330a8b9fd1461021d576101da565b806304757a1f146101df578063110a7947146101f4578063145aa3231461021d575b600080fd5b6101f26101ed3660046145e4565b61047e565b005b6102076102023660046145be565b61057b565b6040516102149190614ee9565b60405180910390f35b6101f261022b3660046145be565b610590565b61024361023e3660046145be565b610627565b6040516102149a9998979695949392919061501d565b6101f26102673660046145be565b610acb565b61027f61027a3660046145be565b610b80565b6040516102149190614fed565b6101f261029a366004614900565b6116f6565b6101f26102ad3660046145be565b611c16565b6102c56102c03660046148c6565b611ca4565b6040516102149190614ed8565b6101f26102e03660046145be565b6129a7565b6102f86102f33660046145be565b612a3c565b6040516102149190614ffe565b6103186103133660046145be565b61370d565b604051610214989796959493929190614ef7565b61033f61033a3660046145be565b613b28565b6040516102149190614eca565b61020761035a3660046145be565b613b43565b61020761036d3660046145be565b613b58565b6102436103803660046145be565b613b6d565b6102076103933660046145be565b613bdf565b6102076103a63660046145be565b613bf4565b6103be6103b93660046145be565b613c09565b604051610214919061500f565b6102436103d93660046145be565b613ce8565b6102076103ec3660046145be565b613d58565b6101f26103ff3660046145be565b613d6d565b61033f6104123660046145be565b613df5565b6101f26104253660046145be565b613e10565b6101f26104383660046145be565b613e9e565b61020761044b3660046145be565b613f26565b6101f261045e366004614735565b613f3b565b61033f6104713660046145be565b614391565b61033f6143ac565b6001600160a01b0388166000908152600160209081526040909120875190916104ab9183918a01906143bb565b5087516104c190600183019060208b01906143bb565b5085516104d790600583019060208901906143bb565b5084516104ed90600283019060208801906143bb565b50825161050390600383019060208601906143bb565b506007810180546001600160a01b0319166001600160a01b038b16179055835161053690600683019060208701906143bb565b50815161054c90600483019060208501906143bb565b5050506001600160a01b039096166000908152600560205260409020805460ff19166001179055505050505050565b60096020526000908152604090205460ff1681565b6000546001600160a01b031633146105a757600080fd5b6001600160a01b03811660009081526008602052604090205460ff166105e85760405162461bcd60e51b81526004016105df90614fcd565b60405180910390fd5b6001600160a01b031660009081526004602081815260408084209092018054600160ff199182168117909255600b909252919092208054909216179055565b6004602090815260009182526040918290208054600180830180548651600293821615610100026000190190911692909204601f8101869004860283018601909652858252919492939092908301828280156106c45780601f10610699576101008083540402835291602001916106c4565b820191906000526020600020905b8154815290600101906020018083116106a757829003601f168201915b50505060028085018054604080516020601f60001961010060018716150201909416959095049283018590048502810185019091528181529596959450909250908301828280156107565780601f1061072b57610100808354040283529160200191610756565b820191906000526020600020905b81548152906001019060200180831161073957829003601f168201915b5050505060038301805460408051602060026001851615610100026000190190941693909304601f81018490048402820184019092528181529495949350908301828280156107e65780601f106107bb576101008083540402835291602001916107e6565b820191906000526020600020905b8154815290600101906020018083116107c957829003601f168201915b50505050600483015460058401805460408051602060026101006001861615026000190190941693909304601f8101849004840282018401909252818152959660ff90941695939450908301828280156108815780601f1061085657610100808354040283529160200191610881565b820191906000526020600020905b81548152906001019060200180831161086457829003601f168201915b5050505060068301805460408051602060026001851615610100026000190190941693909304601f81018490048402820184019092528181529495949350908301828280156109115780601f106108e657610100808354040283529160200191610911565b820191906000526020600020905b8154815290600101906020018083116108f457829003601f168201915b5050505060078301805460408051602060026001851615610100026000190190941693909304601f81018490048402820184019092528181529495949350908301828280156109a15780601f10610976576101008083540402835291602001916109a1565b820191906000526020600020905b81548152906001019060200180831161098457829003601f168201915b5050505060088301805460408051602060026001851615610100026000190190941693909304601f8101849004840282018401909252818152949594935090830182828015610a315780601f10610a0657610100808354040283529160200191610a31565b820191906000526020600020905b815481529060010190602001808311610a1457829003601f168201915b5050505060098301805460408051602060026001851615610100026000190190941693909304601f8101849004840282018401909252818152949594935090830182828015610ac15780601f10610a9657610100808354040283529160200191610ac1565b820191906000526020600020905b815481529060010190602001808311610aa457829003601f168201915b505050505090508a565b6000546001600160a01b03163314610ae257600080fd5b6001600160a01b03811660009081526006602052604090205460ff1615610b1157610b0c81611c16565b610b7d565b6001600160a01b03811660009081526008602052604090205460ff1615610b3b57610b0c81610590565b6001600160a01b03811660009081526007602052604090205460ff1615610b6557610b0c81613e10565b60405162461bcd60e51b81526004016105df90614fbd565b50565b610b88614439565b6001600160a01b03821660009081526006602052604090205460ff1615611085576001600160a01b038216600090815260026020818152604092839020835161014081018552815481526001808301805487519281161561010002600019011695909504601f8101859004850282018501909652858152909491938584019391929091830182828015610c5c5780601f10610c3157610100808354040283529160200191610c5c565b820191906000526020600020905b815481529060010190602001808311610c3f57829003601f168201915b5050509183525050600282810180546040805160206001841615610100026000190190931694909404601f81018390048302850183019091528084529381019390830182828015610cee5780601f10610cc357610100808354040283529160200191610cee565b820191906000526020600020905b815481529060010190602001808311610cd157829003601f168201915b505050918352505060038201805460408051602060026001851615610100026000190190941693909304601f8101849004840282018401909252818152938201939291830182828015610d825780601f10610d5757610100808354040283529160200191610d82565b820191906000526020600020905b815481529060010190602001808311610d6557829003601f168201915b5050509183525050600482015460ff16151560208083019190915260058301805460408051601f60026000196001861615610100020190941693909304928301859004850281018501825282815294019392830182828015610e255780601f10610dfa57610100808354040283529160200191610e25565b820191906000526020600020905b815481529060010190602001808311610e0857829003601f168201915b505050918352505060068201805460408051602060026001851615610100026000190190941693909304601f8101849004840282018401909252818152938201939291830182828015610eb95780601f10610e8e57610100808354040283529160200191610eb9565b820191906000526020600020905b815481529060010190602001808311610e9c57829003601f168201915b505050918352505060078201805460408051602060026001851615610100026000190190941693909304601f8101849004840282018401909252818152938201939291830182828015610f4d5780601f10610f2257610100808354040283529160200191610f4d565b820191906000526020600020905b815481529060010190602001808311610f3057829003601f168201915b505050918352505060088201805460408051602060026001851615610100026000190190941693909304601f8101849004840282018401909252818152938201939291830182828015610fe15780601f10610fb657610100808354040283529160200191610fe1565b820191906000526020600020905b815481529060010190602001808311610fc457829003601f168201915b505050918352505060098201805460408051602060026001851615610100026000190190941693909304601f81018490048402820184019092528181529382019392918301828280156110755780601f1061104a57610100808354040283529160200191611075565b820191906000526020600020905b81548152906001019060200180831161105857829003601f168201915b50505050508152505090506116f1565b6001600160a01b03821660009081526008602052604090205460ff161561114f5760046000836001600160a01b03166001600160a01b031681526020019081526020016000206040518061014001604052908160008201548152602001600182018054600181600116156101000203166002900480601f016020809104026020016040519081016040528092919081815260200182805460018160011615610100020316600290048015610c5c5780601f10610c3157610100808354040283529160200191610c5c565b6001600160a01b03821660009081526007602052604090205460ff16156112195760036000836001600160a01b03166001600160a01b031681526020019081526020016000206040518061014001604052908160008201548152602001600182018054600181600116156101000203166002900480601f016020809104026020016040519081016040528092919081815260200182805460018160011615610100020316600290048015610c5c5780601f10610c3157610100808354040283529160200191610c5c565b6001600160a01b038216600090815260026020818152604092839020835161014081018552815481526001808301805487519281161561010002600019011695909504601f81018590048502820185019096528581529094919385840193919290918301828280156112cc5780601f106112a1576101008083540402835291602001916112cc565b820191906000526020600020905b8154815290600101906020018083116112af57829003601f168201915b5050509183525050600282810180546040805160206001841615610100026000190190931694909404601f8101839004830285018301909152808452938101939083018282801561135e5780601f106113335761010080835404028352916020019161135e565b820191906000526020600020905b81548152906001019060200180831161134157829003601f168201915b505050918352505060038201805460408051602060026001851615610100026000190190941693909304601f81018490048402820184019092528181529382019392918301828280156113f25780601f106113c7576101008083540402835291602001916113f2565b820191906000526020600020905b8154815290600101906020018083116113d557829003601f168201915b5050509183525050600482015460ff16151560208083019190915260058301805460408051601f600260001960018616156101000201909416939093049283018590048502810185018252828152940193928301828280156114955780601f1061146a57610100808354040283529160200191611495565b820191906000526020600020905b81548152906001019060200180831161147857829003601f168201915b505050918352505060068201805460408051602060026001851615610100026000190190941693909304601f81018490048402820184019092528181529382019392918301828280156115295780601f106114fe57610100808354040283529160200191611529565b820191906000526020600020905b81548152906001019060200180831161150c57829003601f168201915b505050918352505060078201805460408051602060026001851615610100026000190190941693909304601f81018490048402820184019092528181529382019392918301828280156115bd5780601f10611592576101008083540402835291602001916115bd565b820191906000526020600020905b8154815290600101906020018083116115a057829003601f168201915b505050918352505060088201805460408051602060026001851615610100026000190190941693909304601f81018490048402820184019092528181529382019392918301828280156116515780601f1061162657610100808354040283529160200191611651565b820191906000526020600020905b81548152906001019060200180831161163457829003601f168201915b505050918352505060098201805460408051602060026001851615610100026000190190941693909304601f81018490048402820184019092528181529382019392918301828280156116e55780601f106116ba576101008083540402835291602001916116e5565b820191906000526020600020905b8154815290600101906020018083116116c857829003601f168201915b50505050508152505090505b919050565b6001600160a01b03841660009081526009602052604090205460ff168061173557506001600160a01b0384166000908152600a602052604090205460ff165b8061175857506001600160a01b0384166000908152600b602052604090205460ff165b6117745760405162461bcd60e51b81526004016105df90614f9d565b6001600160a01b03861660009081526005602052604090205460ff166117ac5760405162461bcd60e51b81526004016105df90614fad565b6001600160a01b0386166000908152600160209081526040808320815192830190915291815286611880576001600160a01b0386166000908152600260208181526040928390208201805484516001821615610100026000190190911693909304601f81018390048302840183019094528383529192908301828280156118745780601f1061184957610100808354040283529160200191611874565b820191906000526020600020905b81548152906001019060200180831161185757829003601f168201915b505050505090506119b1565b86600114156118ff576001600160a01b0386166000908152600360209081526040918290206002908101805484516001821615610100026000190190911692909204601f8101849004840283018401909452838252909290918301828280156118745780601f1061184957610100808354040283529160200191611874565b86600214156119b1576001600160a01b0386166000908152600460209081526040918290206002908101805484516001821615610100026000190190911692909204601f8101849004840283018401909452838252909290918301828280156119a95780601f1061197e576101008083540402835291602001916119a9565b820191906000526020600020905b81548152906001019060200180831161198c57829003601f168201915b505050505090505b6119b961448e565b6040518060e00160405280886001600160a01b031681526020018981526020018381526020018681526020018581526020018781526020014281525090508760001415611acc5760088301805460018082018084556000938452602093849020855160079094020180546001600160a01b0319166001600160a01b039094169390931783558484015191830191909155604084015180519193859392611a6592600285019201906143bb565b5060608201518051611a819160038401916020909101906143bb565b5060808201518051611a9d9160048401916020909101906143bb565b5060a08201518051611ab99160058401916020909101906143bb565b5060c08201518160060155505050611c0b565b8760011415611b3a5760098301805460018082018084556000938452602093849020855160079094020180546001600160a01b0319166001600160a01b039094169390931783558484015191830191909155604084015180519193859392611a6592600285019201906143bb565b8760021415611c0b57600a8301805460018082018084556000938452602093849020855160079094020180546001600160a01b0319166001600160a01b039094169390931783558484015191830191909155604084015180519193859392611ba892600285019201906143bb565b5060608201518051611bc49160038401916020909101906143bb565b5060808201518051611be09160048401916020909101906143bb565b5060a08201518051611bfc9160058401916020909101906143bb565b5060c082015181600601555050505b505050505050505050565b6000546001600160a01b03163314611c2d57600080fd5b6001600160a01b03811660009081526006602052604090205460ff16611c655760405162461bcd60e51b81526004016105df90614fcd565b6001600160a01b031660009081526002602090815260408083206004018054600160ff1991821681179092556009909352922080549091169091179055565b6060611cae6144d4565b6001600160a01b0384166000908152600160208181526040928390208351815460029481161561010002600019011693909304601f8101839004909202830161018090810190945261016083018281529293909284929091849190840182828015611d5a5780601f10611d2f57610100808354040283529160200191611d5a565b820191906000526020600020905b815481529060010190602001808311611d3d57829003601f168201915b50505050508152602001600182018054600181600116156101000203166002900480601f016020809104026020016040519081016040528092919081815260200182805460018160011615610100020316600290048015611dfc5780601f10611dd157610100808354040283529160200191611dfc565b820191906000526020600020905b815481529060010190602001808311611ddf57829003601f168201915b5050509183525050600282810180546040805160206001841615610100026000190190931694909404601f81018390048302850183019091528084529381019390830182828015611e8e5780601f10611e6357610100808354040283529160200191611e8e565b820191906000526020600020905b815481529060010190602001808311611e7157829003601f168201915b505050918352505060038201805460408051602060026001851615610100026000190190941693909304601f8101849004840282018401909252818152938201939291830182828015611f225780601f10611ef757610100808354040283529160200191611f22565b820191906000526020600020905b815481529060010190602001808311611f0557829003601f168201915b505050918352505060048201805460408051602060026001851615610100026000190190941693909304601f8101849004840282018401909252818152938201939291830182828015611fb65780601f10611f8b57610100808354040283529160200191611fb6565b820191906000526020600020905b815481529060010190602001808311611f9957829003601f168201915b505050918352505060058201805460408051602060026001851615610100026000190190941693909304601f810184900484028201840190925281815293820193929183018282801561204a5780601f1061201f5761010080835404028352916020019161204a565b820191906000526020600020905b81548152906001019060200180831161202d57829003601f168201915b505050918352505060068201805460408051602060026001851615610100026000190190941693909304601f81018490048402820184019092528181529382019392918301828280156120de5780601f106120b3576101008083540402835291602001916120de565b820191906000526020600020905b8154815290600101906020018083116120c157829003601f168201915b505050918352505060078201546001600160a01b0316602080830191909152600883018054604080518285028101850182528281529401939260009084015b828210156123c35760008481526020908190206040805160e0810182526007860290920180546001600160a01b03168352600180820154848601526002808301805485516101009482161594909402600019011691909104601f81018790048702830187018552808352949592949386019391929091908301828280156121e55780601f106121ba576101008083540402835291602001916121e5565b820191906000526020600020905b8154815290600101906020018083116121c857829003601f168201915b505050918352505060038201805460408051602060026001851615610100026000190190941693909304601f81018490048402820184019092528181529382019392918301828280156122795780601f1061224e57610100808354040283529160200191612279565b820191906000526020600020905b81548152906001019060200180831161225c57829003601f168201915b505050918352505060048201805460408051602060026001851615610100026000190190941693909304601f810184900484028201840190925281815293820193929183018282801561230d5780601f106122e25761010080835404028352916020019161230d565b820191906000526020600020905b8154815290600101906020018083116122f057829003601f168201915b505050918352505060058201805460408051602060026001851615610100026000190190941693909304601f81018490048402820184019092528181529382019392918301828280156123a15780601f10612376576101008083540402835291602001916123a1565b820191906000526020600020905b81548152906001019060200180831161238457829003601f168201915b505050505081526020016006820154815250508152602001906001019061211d565b50505050815260200160098201805480602002602001604051908101604052809291908181526020016000905b828210156126965760008481526020908190206040805160e0810182526007860290920180546001600160a01b03168352600180820154848601526002808301805485516101009482161594909402600019011691909104601f81018790048702830187018552808352949592949386019391929091908301828280156124b85780601f1061248d576101008083540402835291602001916124b8565b820191906000526020600020905b81548152906001019060200180831161249b57829003601f168201915b505050918352505060038201805460408051602060026001851615610100026000190190941693909304601f810184900484028201840190925281815293820193929183018282801561254c5780601f106125215761010080835404028352916020019161254c565b820191906000526020600020905b81548152906001019060200180831161252f57829003601f168201915b505050918352505060048201805460408051602060026001851615610100026000190190941693909304601f81018490048402820184019092528181529382019392918301828280156125e05780601f106125b5576101008083540402835291602001916125e0565b820191906000526020600020905b8154815290600101906020018083116125c357829003601f168201915b505050918352505060058201805460408051602060026001851615610100026000190190941693909304601f81018490048402820184019092528181529382019392918301828280156126745780601f1061264957610100808354040283529160200191612674565b820191906000526020600020905b81548152906001019060200180831161265757829003601f168201915b50505050508152602001600682015481525050815260200190600101906123f0565b505050508152602001600a8201805480602002602001604051908101604052809291908181526020016000905b828210156129695760008481526020908190206040805160e0810182526007860290920180546001600160a01b03168352600180820154848601526002808301805485516101009482161594909402600019011691909104601f810187900487028301870185528083529495929493860193919290919083018282801561278b5780601f106127605761010080835404028352916020019161278b565b820191906000526020600020905b81548152906001019060200180831161276e57829003601f168201915b505050918352505060038201805460408051602060026001851615610100026000190190941693909304601f810184900484028201840190925281815293820193929183018282801561281f5780601f106127f45761010080835404028352916020019161281f565b820191906000526020600020905b81548152906001019060200180831161280257829003601f168201915b505050918352505060048201805460408051602060026001851615610100026000190190941693909304601f81018490048402820184019092528181529382019392918301828280156128b35780601f10612888576101008083540402835291602001916128b3565b820191906000526020600020905b81548152906001019060200180831161289657829003601f168201915b505050918352505060058201805460408051602060026001851615610100026000190190941693909304601f81018490048402820184019092528181529382019392918301828280156129475780601f1061291c57610100808354040283529160200191612947565b820191906000526020600020905b81548152906001019060200180831161292a57829003601f168201915b50505050508152602001600682015481525050815260200190600101906126c3565b505050915250909150508261298457610100015190506129a1565b826001141561299957610120015190506129a1565b610140015190505b92915050565b6000546001600160a01b031633146129be57600080fd5b6001600160a01b03811660009081526006602052604090205460ff16156129e857610b0c81613d6d565b6001600160a01b03811660009081526008602052604090205460ff1615612a1257610b0c81610590565b6001600160a01b03811660009081526007602052604090205460ff1615610b6557610b0c81613e9e565b612a446144d4565b6001600160a01b0382166000908152600160208181526040928390208351815460029481161561010002600019011693909304601f8101839004909202830161018090810190945261016083018281529293909284929091849190840182828015612af05780601f10612ac557610100808354040283529160200191612af0565b820191906000526020600020905b815481529060010190602001808311612ad357829003601f168201915b50505050508152602001600182018054600181600116156101000203166002900480601f016020809104026020016040519081016040528092919081815260200182805460018160011615610100020316600290048015612b925780601f10612b6757610100808354040283529160200191612b92565b820191906000526020600020905b815481529060010190602001808311612b7557829003601f168201915b5050509183525050600282810180546040805160206001841615610100026000190190931694909404601f81018390048302850183019091528084529381019390830182828015612c245780601f10612bf957610100808354040283529160200191612c24565b820191906000526020600020905b815481529060010190602001808311612c0757829003601f168201915b505050918352505060038201805460408051602060026001851615610100026000190190941693909304601f8101849004840282018401909252818152938201939291830182828015612cb85780601f10612c8d57610100808354040283529160200191612cb8565b820191906000526020600020905b815481529060010190602001808311612c9b57829003601f168201915b505050918352505060048201805460408051602060026001851615610100026000190190941693909304601f8101849004840282018401909252818152938201939291830182828015612d4c5780601f10612d2157610100808354040283529160200191612d4c565b820191906000526020600020905b815481529060010190602001808311612d2f57829003601f168201915b505050918352505060058201805460408051602060026001851615610100026000190190941693909304601f8101849004840282018401909252818152938201939291830182828015612de05780601f10612db557610100808354040283529160200191612de0565b820191906000526020600020905b815481529060010190602001808311612dc357829003601f168201915b505050918352505060068201805460408051602060026001851615610100026000190190941693909304601f8101849004840282018401909252818152938201939291830182828015612e745780601f10612e4957610100808354040283529160200191612e74565b820191906000526020600020905b815481529060010190602001808311612e5757829003601f168201915b505050918352505060078201546001600160a01b0316602080830191909152600883018054604080518285028101850182528281529401939260009084015b828210156131595760008481526020908190206040805160e0810182526007860290920180546001600160a01b03168352600180820154848601526002808301805485516101009482161594909402600019011691909104601f8101879004870283018701855280835294959294938601939192909190830182828015612f7b5780601f10612f5057610100808354040283529160200191612f7b565b820191906000526020600020905b815481529060010190602001808311612f5e57829003601f168201915b505050918352505060038201805460408051602060026001851615610100026000190190941693909304601f810184900484028201840190925281815293820193929183018282801561300f5780601f10612fe45761010080835404028352916020019161300f565b820191906000526020600020905b815481529060010190602001808311612ff257829003601f168201915b505050918352505060048201805460408051602060026001851615610100026000190190941693909304601f81018490048402820184019092528181529382019392918301828280156130a35780601f10613078576101008083540402835291602001916130a3565b820191906000526020600020905b81548152906001019060200180831161308657829003601f168201915b505050918352505060058201805460408051602060026001851615610100026000190190941693909304601f81018490048402820184019092528181529382019392918301828280156131375780601f1061310c57610100808354040283529160200191613137565b820191906000526020600020905b81548152906001019060200180831161311a57829003601f168201915b5050505050815260200160068201548152505081526020019060010190612eb3565b50505050815260200160098201805480602002602001604051908101604052809291908181526020016000905b8282101561342c5760008481526020908190206040805160e0810182526007860290920180546001600160a01b03168352600180820154848601526002808301805485516101009482161594909402600019011691909104601f810187900487028301870185528083529495929493860193919290919083018282801561324e5780601f106132235761010080835404028352916020019161324e565b820191906000526020600020905b81548152906001019060200180831161323157829003601f168201915b505050918352505060038201805460408051602060026001851615610100026000190190941693909304601f81018490048402820184019092528181529382019392918301828280156132e25780601f106132b7576101008083540402835291602001916132e2565b820191906000526020600020905b8154815290600101906020018083116132c557829003601f168201915b505050918352505060048201805460408051602060026001851615610100026000190190941693909304601f81018490048402820184019092528181529382019392918301828280156133765780601f1061334b57610100808354040283529160200191613376565b820191906000526020600020905b81548152906001019060200180831161335957829003601f168201915b505050918352505060058201805460408051602060026001851615610100026000190190941693909304601f810184900484028201840190925281815293820193929183018282801561340a5780601f106133df5761010080835404028352916020019161340a565b820191906000526020600020905b8154815290600101906020018083116133ed57829003601f168201915b5050505050815260200160068201548152505081526020019060010190613186565b505050508152602001600a8201805480602002602001604051908101604052809291908181526020016000905b828210156136ff5760008481526020908190206040805160e0810182526007860290920180546001600160a01b03168352600180820154848601526002808301805485516101009482161594909402600019011691909104601f81018790048702830187018552808352949592949386019391929091908301828280156135215780601f106134f657610100808354040283529160200191613521565b820191906000526020600020905b81548152906001019060200180831161350457829003601f168201915b505050918352505060038201805460408051602060026001851615610100026000190190941693909304601f81018490048402820184019092528181529382019392918301828280156135b55780601f1061358a576101008083540402835291602001916135b5565b820191906000526020600020905b81548152906001019060200180831161359857829003601f168201915b505050918352505060048201805460408051602060026001851615610100026000190190941693909304601f81018490048402820184019092528181529382019392918301828280156136495780601f1061361e57610100808354040283529160200191613649565b820191906000526020600020905b81548152906001019060200180831161362c57829003601f168201915b505050918352505060058201805460408051602060026001851615610100026000190190941693909304601f81018490048402820184019092528181529382019392918301828280156136dd5780601f106136b2576101008083540402835291602001916136dd565b820191906000526020600020905b8154815290600101906020018083116136c057829003601f168201915b5050505050815260200160068201548152505081526020019060010190613459565b505050915250909392505050565b60016020818152600092835260409283902080548451600294821615610100026000190190911693909304601f810183900483028401830190945283835292839183018282801561379f5780601f106137745761010080835404028352916020019161379f565b820191906000526020600020905b81548152906001019060200180831161378257829003601f168201915b505050505090806001018054600181600116156101000203166002900480601f01602080910402602001604051908101604052809291908181526020018280546001816001161561010002031660029004801561383d5780601f106138125761010080835404028352916020019161383d565b820191906000526020600020905b81548152906001019060200180831161382057829003601f168201915b50505060028085018054604080516020601f60001961010060018716150201909416959095049283018590048502810185019091528181529596959450909250908301828280156138cf5780601f106138a4576101008083540402835291602001916138cf565b820191906000526020600020905b8154815290600101906020018083116138b257829003601f168201915b5050505060038301805460408051602060026001851615610100026000190190941693909304601f810184900484028201840190925281815294959493509083018282801561395f5780601f106139345761010080835404028352916020019161395f565b820191906000526020600020905b81548152906001019060200180831161394257829003601f168201915b5050505060048301805460408051602060026001851615610100026000190190941693909304601f81018490048402820184019092528181529495949350908301828280156139ef5780601f106139c4576101008083540402835291602001916139ef565b820191906000526020600020905b8154815290600101906020018083116139d257829003601f168201915b5050505060058301805460408051602060026001851615610100026000190190941693909304601f8101849004840282018401909252818152949594935090830182828015613a7f5780601f10613a5457610100808354040283529160200191613a7f565b820191906000526020600020905b815481529060010190602001808311613a6257829003601f168201915b5050505060068301805460408051602060026001851615610100026000190190941693909304601f8101849004840282018401909252818152949594935090830182828015613b0f5780601f10613ae457610100808354040283529160200191613b0f565b820191906000526020600020905b815481529060010190602001808311613af257829003601f168201915b505050600790930154919250506001600160a01b031688565b600c602052600090815260409020546001600160a01b031681565b600a6020526000908152604090205460ff1681565b600b6020526000908152604090205460ff1681565b6003602090815260009182526040918290208054600180830180548651600293821615610100026000190190911692909204601f8101869004860283018601909652858252919492939092908301828280156106c45780601f10610699576101008083540402835291602001916106c4565b60066020526000908152604090205460ff1681565b60086020526000908152604090205460ff1681565b600080546001600160a01b0383811691161415613c28575060016116f1565b6001600160a01b03821660009081526005602052604090205460ff16151560011415613c56575060026116f1565b6001600160a01b03821660009081526006602052604090205460ff16151560011415613c84575060036116f1565b6001600160a01b03821660009081526008602052604090205460ff16151560011415613cb2575060046116f1565b6001600160a01b03821660009081526007602052604090205460ff16151560011415613ce0575060056116f1565b506000919050565b60026020818152600092835260409283902080546001808301805487519281161561010002600019011695909504601f81018590048502820185019096528581529094919390929091908301828280156106c45780601f10610699576101008083540402835291602001916106c4565b60056020526000908152604090205460ff1681565b6000546001600160a01b03163314613d8457600080fd5b6001600160a01b03811660009081526006602052604090205460ff16613dbc5760405162461bcd60e51b81526004016105df90614fcd565b6001600160a01b03166000908152600260209081526040808320600401805460ff19908116909155600990925290912080549091169055565b600d602052600090815260409020546001600160a01b031681565b6000546001600160a01b03163314613e2757600080fd5b6001600160a01b03811660009081526007602052604090205460ff16613e5f5760405162461bcd60e51b81526004016105df90614fcd565b6001600160a01b031660009081526003602090815260408083206004018054600160ff199182168117909255600a909352922080549091169091179055565b6000546001600160a01b03163314613eb557600080fd5b6001600160a01b03811660009081526007602052604090205460ff16613eed5760405162461bcd60e51b81526004016105df90614fcd565b6001600160a01b03166000908152600360209081526040808320600401805460ff19908116909155600a90925290912080549091169055565b60076020526000908152604090205460ff1681565b613f43614439565b6040518061014001604052808a81526020018981526020018b815260200188815260200160001515815260200187815260200186815260200185815260200184815260200183815250905088600014156140d8576001600160a01b038b166000908152600260209081526040909120825181558183015180518493613fcf9260018501929101906143bb565b5060408201518051613feb9160028401916020909101906143bb565b50606082015180516140079160038401916020909101906143bb565b50608082015160048201805460ff191691151591909117905560a0820151805161403b9160058401916020909101906143bb565b5060c082015180516140579160068401916020909101906143bb565b5060e082015180516140739160078401916020909101906143bb565b5061010082015180516140909160088401916020909101906143bb565b5061012082015180516140ad9160098401916020909101906143bb565b5050506001600160a01b038b166000908152600660205260409020805460ff19166001179055614384565b8860011415614222576001600160a01b038b1660009081526003602090815260409091208251815581830151805184936141199260018501929101906143bb565b50604082015180516141359160028401916020909101906143bb565b50606082015180516141519160038401916020909101906143bb565b50608082015160048201805460ff191691151591909117905560a082015180516141859160058401916020909101906143bb565b5060c082015180516141a19160068401916020909101906143bb565b5060e082015180516141bd9160078401916020909101906143bb565b5061010082015180516141da9160088401916020909101906143bb565b5061012082015180516141f79160098401916020909101906143bb565b5050506001600160a01b038b166000908152600760205260409020805460ff19166001179055614384565b886002141561436c576001600160a01b038b1660009081526004602090815260409091208251815581830151805184936142639260018501929101906143bb565b506040820151805161427f9160028401916020909101906143bb565b506060820151805161429b9160038401916020909101906143bb565b50608082015160048201805460ff191691151591909117905560a082015180516142cf9160058401916020909101906143bb565b5060c082015180516142eb9160068401916020909101906143bb565b5060e082015180516143079160078401916020909101906143bb565b5061010082015180516143249160088401916020909101906143bb565b5061012082015180516143419160098401916020909101906143bb565b5050506001600160a01b038b166000908152600860205260409020805460ff19166001179055614384565b60405162461bcd60e51b81526004016105df90614fdd565b5050505050505050505050565b600e602052600090815260409020546001600160a01b031681565b6000546001600160a01b031681565b828054600181600116156101000203166002900490600052602060002090601f016020900481019282601f106143fc57805160ff1916838001178555614429565b82800160010185558215614429579182015b8281111561442957825182559160200191906001019061440e565b50614435929150614537565b5090565b6040518061014001604052806000815260200160608152602001606081526020016060815260200160001515815260200160608152602001606081526020016060815260200160608152602001606081525090565b6040518060e0016040528060006001600160a01b031681526020016000815260200160608152602001606081526020016060815260200160608152602001600081525090565b6040518061016001604052806060815260200160608152602001606081526020016060815260200160608152602001606081526020016060815260200160006001600160a01b031681526020016060815260200160608152602001606081525090565b61455191905b80821115614435576000815560010161453d565b90565b80356129a1816151ab565b600082601f83011261457057600080fd5b813561458361457e8261510f565b6150e9565b9150808252602083016020830185838301111561459f57600080fd5b6145aa838284615165565b50505092915050565b80356129a1816151bf565b6000602082840312156145d057600080fd5b60006145dc8484614554565b949350505050565b600080600080600080600080610100898b03121561460157600080fd5b600061460d8b8b614554565b98505060208901356001600160401b0381111561462957600080fd5b6146358b828c0161455f565b97505060408901356001600160401b0381111561465157600080fd5b61465d8b828c0161455f565b96505060608901356001600160401b0381111561467957600080fd5b6146858b828c0161455f565b95505060808901356001600160401b038111156146a157600080fd5b6146ad8b828c0161455f565b94505060a08901356001600160401b038111156146c957600080fd5b6146d58b828c0161455f565b93505060c08901356001600160401b038111156146f157600080fd5b6146fd8b828c0161455f565b92505060e08901356001600160401b0381111561471957600080fd5b6147258b828c0161455f565b9150509295985092959890939650565b6000806000806000806000806000806101408b8d03121561475557600080fd5b60006147618d8d614554565b9a505060208b01356001600160401b0381111561477d57600080fd5b6147898d828e0161455f565b995050604061479a8d828e016145b3565b98505060608b01356001600160401b038111156147b657600080fd5b6147c28d828e0161455f565b97505060808b01356001600160401b038111156147de57600080fd5b6147ea8d828e0161455f565b96505060a08b01356001600160401b0381111561480657600080fd5b6148128d828e0161455f565b95505060c08b01356001600160401b0381111561482e57600080fd5b61483a8d828e0161455f565b94505060e08b01356001600160401b0381111561485657600080fd5b6148628d828e0161455f565b9350506101008b01356001600160401b0381111561487f57600080fd5b61488b8d828e0161455f565b9250506101208b01356001600160401b038111156148a857600080fd5b6148b48d828e0161455f565b9150509295989b9194979a5092959850565b600080604083850312156148d957600080fd5b60006148e58585614554565b92505060206148f6858286016145b3565b9150509250929050565b60008060008060008060c0878903121561491957600080fd5b60006149258989614554565b965050602061493689828a016145b3565b955050604061494789828a01614554565b94505060608701356001600160401b0381111561496357600080fd5b61496f89828a0161455f565b93505060808701356001600160401b0381111561498b57600080fd5b61499789828a0161455f565b92505060a08701356001600160401b038111156149b357600080fd5b6149bf89828a0161455f565b9150509295509295509295565b60006149d88383614e17565b9392505050565b6149e881615149565b82525050565b60006149f98261513c565b614a038185615140565b935083602082028501614a1585615136565b8060005b85811015614a4f5784840389528151614a3285826149cc565b9450614a3d83615136565b60209a909a0199925050600101614a19565b5091979650505050505050565b6000614a678261513c565b614a718185615140565b935083602082028501614a8385615136565b8060005b85811015614a4f5784840389528151614aa085826149cc565b9450614aab83615136565b60209a909a0199925050600101614a87565b6149e881615154565b6000614ad18261513c565b614adb8185615140565b9350614aeb818560208601615171565b614af4816151a1565b9093019392505050565b6000614b0b601a83615140565b7f4f5247414e49534154494f4e204e4f5420564552494649454421000000000000815260200192915050565b6000614b44601683615140565b7f504552534f4e20444f4553204e4f542045584953542100000000000000000000815260200192915050565b6000614b7d600c83615140565b6b139bc81bdc99c8199bdd5b9960a21b815260200192915050565b6000614ba5601c83615140565b7f4f5247414e49534154494f4e20444f4553204e4f542045584953542100000000815260200192915050565b6000614bde600b83615140565b6a57726f6e6720547970652160a81b815260200192915050565b8051600090610140840190614c0d8582614ec1565b5060208301518482036020860152614c258282614ac6565b91505060408301518482036040860152614c3f8282614ac6565b91505060608301518482036060860152614c598282614ac6565b9150506080830151614c6e6080860182614abd565b5060a083015184820360a0860152614c868282614ac6565b91505060c083015184820360c0860152614ca08282614ac6565b91505060e083015184820360e0860152614cba8282614ac6565b915050610100830151848203610100860152614cd68282614ac6565b915050610120830151848203610120860152614cf28282614ac6565b95945050505050565b805161016080845260009190840190614d148282614ac6565b91505060208301518482036020860152614d2e8282614ac6565b91505060408301518482036040860152614d488282614ac6565b91505060608301518482036060860152614d628282614ac6565b91505060808301518482036080860152614d7c8282614ac6565b91505060a083015184820360a0860152614d968282614ac6565b91505060c083015184820360c0860152614db08282614ac6565b91505060e0830151614dc560e08601826149df565b50610100830151848203610100860152614ddf8282614a5c565b915050610120830151848203610120860152614dfb8282614a5c565b915050610140830151848203610140860152614cf28282614a5c565b805160009060e0840190614e2b85826149df565b506020830151614e3e6020860182614ec1565b5060408301518482036040860152614e568282614ac6565b91505060608301518482036060860152614e708282614ac6565b91505060808301518482036080860152614e8a8282614ac6565b91505060a083015184820360a0860152614ea48282614ac6565b91505060c0830151614eb960c0860182614ec1565b509392505050565b6149e881614551565b602081016129a182846149df565b602080825281016149d881846149ee565b602081016129a18284614abd565b6101008082528101614f09818b614ac6565b90508181036020830152614f1d818a614ac6565b90508181036040830152614f318189614ac6565b90508181036060830152614f458188614ac6565b90508181036080830152614f598187614ac6565b905081810360a0830152614f6d8186614ac6565b905081810360c0830152614f818185614ac6565b9050614f9060e08301846149df565b9998505050505050505050565b602080825281016129a181614afe565b602080825281016129a181614b37565b602080825281016129a181614b70565b602080825281016129a181614b98565b602080825281016129a181614bd1565b602080825281016149d88184614bf8565b602080825281016149d88184614cfb565b602081016129a18284614ec1565b610140810161502c828d614ec1565b818103602083015261503e818c614ac6565b90508181036040830152615052818b614ac6565b90508181036060830152615066818a614ac6565b90506150756080830189614abd565b81810360a08301526150878188614ac6565b905081810360c083015261509b8187614ac6565b905081810360e08301526150af8186614ac6565b90508181036101008301526150c48185614ac6565b90508181036101208301526150d98184614ac6565b9c9b505050505050505050505050565b6040518181016001600160401b038111828210171561510757600080fd5b604052919050565b60006001600160401b0382111561512557600080fd5b506020601f91909101601f19160190565b60200190565b5190565b90815260200190565b60006129a182615159565b151590565b6001600160a01b031690565b82818337506000910152565b60005b8381101561518c578181015183820152602001615174565b8381111561519b576000848401525b50505050565b601f01601f191690565b6151b481615149565b8114610b7d57600080fd5b6151b48161455156fea365627a7a72315820cf97632c260a01952fef3bac19abaad31d278e1bf6977fddca08f77e6de674386c6578706572696d656e74616cf564736f6c634300050f0040",
  "source": "pragma solidity >=0.4.21 <8.10.0;\r\npragma experimental ABIEncoderV2;\r\n\r\ncontract Aadhar {\r\n    address public admin;\r\n\r\n\r\n    struct Organization {\r\n        uint type_org;\r\n        string pic_hash;\r\n        string name;\r\n        string contactNo;\r\n        bool isVerified;\r\n        string location;\r\n        string about;\r\n        string phyAdd;\r\n        string email;\r\n        string org_website_link;\r\n    }\r\n\r\n\r\n\r\n    struct Person_data {\r\n        address org_address;\r\n        uint org_type;\r\n        string org_name;\r\n        string doc_title;\r\n        string Description;\r\n        string Hash; //hash of the doc\r\n        uint256 timeStamp; //use \"now\" to store current time\r\n    }\r\n\r\n\r\n    struct Person {\r\n        string name;\r\n        string pic_hash;\r\n        string AadharNo;\r\n        string dob;\r\n        string contactNo;\r\n        string Gender;\r\n        string phyAddress;\r\n        address ethAddress;\r\n        Person_data[] Edu_data;\r\n        Person_data[] Crime_data;\r\n        Person_data[] Med_data;\r\n    }\r\n\r\n    mapping(address => Person) public address_person_map;\r\n    mapping(address => Organization) public address_edu_map;\r\n    mapping(address => Organization) public address_crime_map;\r\n    mapping(address => Organization) public address_med_map;\r\n\r\n    mapping(address => bool) public exists_address_person_map;\r\n    mapping(address => bool) public exists_address_edu_map;\r\n    mapping(address => bool) public exists_address_crime_map;\r\n    mapping(address => bool) public exists_address_med_map;\r\n\r\n    mapping(address => bool) public verified_address_edu_map;\r\n    mapping(address => bool) public verified_address_crime_map;\r\n    mapping(address => bool) public verified_address_med_map;\r\n\r\n    mapping(address => address) public person_to_edu_org;\r\n    mapping(address => address) public person_to_crime_org;\r\n    mapping(address => address) public person_to_med_org;\r\n\r\n    constructor() public {\r\n        admin = msg.sender;\r\n    }\r\n\r\n    function registerOrg (\r\n        address org_address,\r\n        string memory name,\r\n        uint type_org,\r\n        string memory pic_hash,\r\n        string memory contactNo,\r\n        string memory location,\r\n        string memory about,\r\n        string memory phyAdd,\r\n        string memory email,\r\n        string memory website_link) public {\r\n            Organization memory org = Organization(type_org, pic_hash, name, contactNo, false, location, about, phyAdd, email, website_link);\r\n            if(type_org == 0){\r\n                // org = address_edu_map[org_address];\r\n                address_edu_map[org_address] = org;\r\n                exists_address_edu_map[org_address] = true;\r\n                // registerEduOrg(org_address, name, pic_hash, contactNo, location, about, phyAdd, email, website_link);\r\n            } else if (type_org == 1){\r\n                // org = address_crime_map[org_address];\r\n                address_crime_map[org_address] = org;\r\n                exists_address_crime_map[org_address] = true;\r\n                // registerCrimeOrg(org_address, name, pic_hash, contactNo, location, about, phyAdd, email, website_link);\r\n            } else if(type_org==2){\r\n                // org = address_med_map[org_address];\r\n                address_med_map[org_address] = org;\r\n                exists_address_med_map[org_address] = true;\r\n                // registerMedOrg(org_address, name, pic_hash, contactNo, location, about, phyAdd, email, website_link);\r\n            }else{\r\n                revert(\"Wrong Type!\");\r\n            }\r\n\r\n            // org.name = name;\r\n            // org.type_org = 0;\r\n            // org.contactNo = contactNo;\r\n            // org.location = location;\r\n            // org.about = about;\r\n            // org.phyAdd = phyAdd;\r\n            // org.email = email;\r\n            // org.pic_hash = pic_hash;\r\n            // org.org_website_link = website_link;\r\n\r\n        }\r\n\r\n    // function registerEduOrg(\r\n    //     address org_address,\r\n    //     string memory name,\r\n    //     string memory pic_hash,\r\n    //     string memory contactNo,\r\n    //     string memory location,\r\n    //     string memory about,\r\n    //     string memory phyAdd,\r\n    //     string memory email,\r\n    //     string memory website_link\r\n    // ) public {\r\n    //     // Check if exists\r\n    //     Organization storage org = address_edu_map[org_address];\r\n    //     org.name = name;\r\n    //     org.type_org = 0;\r\n    //     org.contactNo = contactNo;\r\n    //     org.location = location;\r\n    //     org.about = about;\r\n    //     org.phyAdd = phyAdd;\r\n    //     org.email = email;\r\n    //     org.pic_hash = pic_hash;\r\n    //     org.org_website_link = website_link;\r\n\r\n    //     exists_address_edu_map[org_address] = true;\r\n    // }\r\n\r\n    // function registerCrimeOrg(\r\n    //     address org_address,\r\n    //     string memory name,\r\n    //     string memory pic_hash,\r\n    //     string memory contactNo,\r\n    //     string memory location,\r\n    //     string memory about,\r\n    //     string memory phyAdd,\r\n    //     string memory email,\r\n    //     string memory website_link\r\n    // ) public {\r\n    //     Organization storage org = address_crime_map[org_address];\r\n    //     org.name = name;\r\n    //     org.type_org = 1;\r\n    //     org.contactNo = contactNo;\r\n    //     org.location = location;\r\n    //     org.about = about;\r\n    //     org.phyAdd = phyAdd;\r\n    //     org.email = email;\r\n    //     org.pic_hash = pic_hash;\r\n    //     org.org_website_link = website_link;\r\n\r\n    //     exists_address_crime_map[org_address] = true;\r\n    // }\r\n\r\n    // function registerMedOrg(\r\n    //     address org_address,\r\n    //     string memory name,\r\n    //     string memory pic_hash,\r\n    //     string memory contactNo,\r\n    //     string memory location,\r\n    //     string memory about,\r\n    //     string memory phyAdd,\r\n    //     string memory email,\r\n    //     string memory website_link\r\n    // ) public {\r\n    //     // Check if exists\r\n    //     Organization storage org = address_med_map[org_address];\r\n    //     org.name = name;\r\n    //     org.type_org = 2;\r\n    //     org.contactNo = contactNo;\r\n    //     org.location = location;\r\n    //     org.about = about;\r\n    //     org.phyAdd = phyAdd;\r\n    //     org.email = email;\r\n    //     org.pic_hash = pic_hash;\r\n    //     org.org_website_link = website_link;\r\n\r\n    //     exists_address_med_map[org_address] = true;\r\n    // }\r\n\r\n    function registerPerson(\r\n        address person_address,\r\n        string memory pic_hash,\r\n        string memory name,\r\n        string memory Gender,\r\n        string memory AadharNo,\r\n        string memory phyAddress,\r\n        string memory dob,\r\n        string memory contactNo\r\n    ) public {\r\n        Person storage per = address_person_map[person_address];\r\n        per.name = name;\r\n        per.pic_hash = pic_hash;\r\n        per.Gender = Gender;\r\n        per.AadharNo = AadharNo;\r\n        per.dob = dob;\r\n        per.ethAddress = person_address;\r\n        per.phyAddress = phyAddress;\r\n        per.contactNo = contactNo;\r\n\r\n        exists_address_person_map[person_address] = true;\r\n    }\r\n\r\n    function getPerson(address person_address) public view returns (Person memory){\r\n        return address_person_map[person_address];\r\n    }\r\n\r\n    function getOrg(address org_address) public view returns (Organization memory){\r\n        if(exists_address_edu_map[org_address]){ return address_edu_map[org_address]; }\r\n        else if(exists_address_med_map[org_address]){ return address_med_map[org_address]; }\r\n        else if(exists_address_crime_map[org_address]){ return address_crime_map[org_address]; }\r\n        return address_edu_map[org_address];\r\n    }\r\n\r\n    function getDocsList(address user_address, uint org_type) public view returns (Person_data [] memory){\r\n        Person memory user = address_person_map[user_address];\r\n        if(org_type == 0){ return user.Edu_data; }\r\n        else if(org_type == 1){ return user.Crime_data; }\r\n        else{ return user.Med_data; }\r\n    }\r\n\r\n    function checkRole(address my_address) public view returns (uint256) {\r\n        if(my_address == admin) {return 1;}\r\n        if(exists_address_person_map[my_address] == true){ return 2; }\r\n        if(exists_address_edu_map[my_address] == true){ return 3; }\r\n        if(exists_address_med_map[my_address] == true){ return 4; }\r\n        if(exists_address_crime_map[my_address] == true){ return 5; }\r\n        return 0;\r\n    }\r\n\r\n    function addPersonDoc(\r\n        address person_address,\r\n        uint org_type,\r\n        address org_address,\r\n        string memory doc_hash,\r\n        string memory doc_title,\r\n        string memory Description\r\n    ) public {\r\n        require(\r\n            verified_address_edu_map[org_address] ||\r\n                verified_address_crime_map[org_address] ||\r\n                verified_address_med_map[org_address],\r\n            \"ORGANISATION NOT VERIFIED!\"\r\n        );\r\n        require(\r\n            exists_address_person_map[person_address],\r\n            \"PERSON DOES NOT EXIST!\"\r\n        );\r\n        Person storage per = address_person_map[person_address];\r\n        string memory org_name = \"\";\r\n        if(org_type == 0){ org_name = address_edu_map[org_address].name; }\r\n        else if(org_type == 1){ org_name = address_crime_map[org_address].name; }\r\n        else if(org_type == 2){ org_name = address_med_map[org_address].name; }\r\n        Person_data memory tempData = Person_data(\r\n                org_address,\r\n                org_type,\r\n                org_name,\r\n                doc_title,\r\n                Description,\r\n                doc_hash,\r\n                block.timestamp\r\n        );\r\n        if(org_type == 0){ per.Edu_data.push(tempData); }\r\n        else if(org_type == 1){ per.Crime_data.push(tempData); }\r\n        else if(org_type == 2){ per.Med_data.push(tempData); }\r\n        // if(org_type == 0){ \r\n        //     org_name = address_edu_map[org_address].name;\r\n        //     Person_data memory tempData = Person_data(\r\n        //         org_address,\r\n        //         org_type,\r\n        //         org_name,\r\n        //         Description,\r\n        //         doc_hash,\r\n        //         block.timestamp\r\n        // );\r\n        // per.Edu_data.push(tempData);\r\n        //      }\r\n        // else if(org_type == 1){\r\n        //     org_name = address_crime_map[org_address].name;\r\n        //     Person_data memory tempData = Person_data(\r\n        //         org_address,\r\n        //         org_type,\r\n        //         org_name,\r\n        //         Description,\r\n        //         doc_hash,\r\n        //         block.timestamp\r\n        // );\r\n        // per.Crime_data.push(tempData);\r\n        //     }\r\n        // else if(org_type == 2){ \r\n        //     org_name = address_med_map[org_address].name;\r\n        //     Person_data memory tempData = Person_data(\r\n        //         org_address,\r\n        //         org_type,\r\n        //         org_name,\r\n        //         Description,\r\n        //         doc_hash,\r\n        //         block.timestamp\r\n        // );\r\n        // per.Med_data.push(tempData);\r\n        //      }\r\n    }\r\n\r\n    modifier onlyAdmin() {\r\n        require(msg.sender == admin);\r\n        _;\r\n    }\r\n\r\n    function verifyOrg(address org_address) public onlyAdmin {\r\n        if(exists_address_edu_map[org_address]){ verifyEduOrg(org_address); }\r\n        else if(exists_address_med_map[org_address]){ verifyMedOrg(org_address); }\r\n        else if(exists_address_crime_map[org_address]){ verifyCrimeOrg(org_address); }\r\n        else{\r\n            revert(\"No org found\");\r\n        }\r\n    }\r\n\r\n    function unverifyOrg(address org_address) public onlyAdmin {\r\n        if(exists_address_edu_map[org_address]){ unverifyEduOrg(org_address); }\r\n        else if(exists_address_med_map[org_address]){ unverifyMedOrg(org_address); }\r\n        else if(exists_address_crime_map[org_address]){ unverifyCrimeOrg(org_address); }\r\n        else{\r\n            revert(\"No org found\");\r\n        }\r\n    }\r\n\r\n    function verifyEduOrg(address org_address) public onlyAdmin {\r\n        require(\r\n            exists_address_edu_map[org_address],\r\n            \"ORGANISATION DOES NOT EXIST!\"\r\n        );\r\n        Organization storage temporg = address_edu_map[org_address];\r\n        temporg.isVerified = true;\r\n        verified_address_edu_map[org_address] = true;\r\n    }\r\n\r\n    function unverifyEduOrg(address org_address) public onlyAdmin {\r\n        require(\r\n            exists_address_edu_map[org_address],\r\n            \"ORGANISATION DOES NOT EXIST!\"\r\n        );\r\n        Organization storage temporg = address_edu_map[org_address];\r\n        temporg.isVerified = false;\r\n        verified_address_edu_map[org_address] = false;\r\n    }\r\n\r\n    function verifyCrimeOrg(address org_address) public onlyAdmin {\r\n        require(\r\n            exists_address_crime_map[org_address],\r\n            \"ORGANISATION DOES NOT EXIST!\"\r\n        );\r\n        Organization storage temporg = address_crime_map[org_address];\r\n        temporg.isVerified = true;\r\n        verified_address_crime_map[org_address] = true;\r\n    }\r\n\r\n    function unverifyCrimeOrg(address org_address) public onlyAdmin {\r\n        require(\r\n            exists_address_crime_map[org_address],\r\n            \"ORGANISATION DOES NOT EXIST!\"\r\n        );\r\n        Organization storage temporg = address_crime_map[org_address];\r\n        temporg.isVerified = false;\r\n        verified_address_crime_map[org_address] = false;\r\n    }\r\n\r\n    function verifyMedOrg(address org_address) public onlyAdmin {\r\n        require(\r\n            exists_address_med_map[org_address],\r\n            \"ORGANISATION DOES NOT EXIST!\"\r\n        );\r\n        Organization storage temporg = address_med_map[org_address];\r\n        temporg.isVerified = true;\r\n        verified_address_med_map[org_address] = true;\r\n    }\r\n\r\n    function unverifyMedOrg(address org_address) public onlyAdmin {\r\n        require(\r\n            exists_address_med_map[org_address],\r\n            \"ORGANISATION DOES NOT EXIST!\"\r\n        );\r\n        Organization storage temporg = address_med_map[org_address];\r\n        temporg.isVerified = true;\r\n        verified_address_med_map[org_address] = true;\r\n    }\r\n\r\n    // function addEduOrgDocs(address org_address, string memory hash)\r\n    //     public\r\n    //     onlyAdmin\r\n    // {\r\n    //     require(\r\n    //         verified_address_edu_map[org_address],\r\n    //         \"ORGANISATION  IS NOT VERIFIED!!\"\r\n    //     );\r\n    //     Organization storage temporg = address_edu_map[org_address];\r\n    //     temporg.Docs.push(hash);\r\n    // }\r\n\r\n    // function addCrimeOrgDocs(address org_address, string memory hash)\r\n    //     public\r\n    //     onlyAdmin\r\n    // {\r\n    //     require(\r\n    //         verified_address_crime_map[org_address],\r\n    //         \"ORGANISATION  IS NOT VERIFIED!!\"\r\n    //     );\r\n    //     Organization storage temporg = address_crime_map[org_address];\r\n    //     temporg.Docs.push(hash);\r\n    // }\r\n\r\n    // function addMedOrgDocs(address org_address, string memory hash)\r\n    //     public\r\n    //     onlyAdmin\r\n    // {\r\n    //     require(\r\n    //         verified_address_med_map[org_address],\r\n    //         \"ORGANISATION  IS NOT VERIFIED!!\"\r\n    //     );\r\n    //     Organization storage temporg = address_med_map[org_address];\r\n    //     temporg.Docs.push(hash);\r\n    // }\r\n}",
  "sourcePath": "C:\\Users\\ravim\\Documents\\WebDev\\KJSCE_Hack\\contracts\\Aadhar.sol",
  "compiler": {
    "name": "solc",
    "version": "0.5.15+commit.6a57276f.Emscripten.clang"
  },
  "schemaVersion": "3.4.4",
  "updatedAt": "2022-02-13T05:20:05.607Z",
  "networkType": "ethereum",
  "devdoc": {
    "methods": {}
  },
  "userdoc": {
    "methods": {}
  }
}